:0200000460009A
:100000004643464200000156000000000103030081
:1000100000000000000000000000000000000000E0
:1000200000000000000000000000000000000000D0
:1000300000000000000000000000000000000000C0
:1000400000000000010408000000000000000000A3
:100050000000800000000000000000000000000020
:100060000000000000000000000000000000000090
:100070000000000000000000000000000000000080
:10008000EB04180A063204260000000000000000FD
:10009000050404240000000000000000000000002F
:1000A0000000000000000000000000000000000050
:1000B0000604000000000000000000000000000036
:1000C0000000000000000000000000000000000030
:1000D00020041808000000000000000000000000DC
:1000E0000000000000000000000000000000000010
:1000F0000000000000000000000000000000000000
:10010000D8041808000000000000000000000000F3
:100110000204180804200000000000000000000095
:1001200000000000000000000000000000000000CF
:10013000600400000000000000000000000000005B
:1001400000000000000000000000000000000000AF
:10015000000000000000000000000000000000009F
:10016000000000000000000000000000000000008F
:10017000000000000000000000000000000000007F
:10018000000000000000000000000000000000006F
:10019000000000000000000000000000000000005F
:1001A000000000000000000000000000000000004F
:1001B000000000000000000000000000000000003F
:1001C000000100000010000001000000000000001D
:1001D000000001000000000000000000000000001E
:1001E000000000000000000000000000000000000F
:1001F00000000000000000000000000000000000FF
:10020000FFFFFFFFFFFFFFFFFFFFFFFFFFFFFFFFFE
:10021000FFFFFFFFFFFFFFFFFFFFFFFFFFFFFFFFEE
:10100000D10020434D1600600000000000000000E9
:10101000201000600010006000A0016000000000CF
:101020000000006000AC010000000000FFFFFFFFB7
:10103000FFFFFFFFFFFFFFFFFFFFFFFFFFFFFFFFC0
:10104000FFFFFFFFFFFFFFFFFFFFFFFFFFFFFFFFB0
:10105000FFFFFFFFFFFFFFFFFFFFFFFFFFFFFFFFA0
:10106000FFFFFFFFFFFFFFFFFFFFFFFFFFFFFFFF90
:10140000814205D051F8043B40F8043B8242F9D8B0
:10141000704700BF044A05494FF0000342F8043BFF
:101420009142FBD8704700BFC02A002080430020B3
:101430002DE98848BFF34F8F00BF00BF00BF00BF3A
:1014400000F0FCFA684B0822C3F8542100BF00BF2B
:1014500000BF00BF00BF00BF00BF00BF00BF00BF94
:1014600000BF00BF00BF00BF00BF00BF5F4A6049B0
:101470006048FFF7C5FF604A60496148FFF7C0FF59
:10148000604CFFF7C7FF4FF470004FF0E0210023DE
:101490005D4AC1F8880D44F823200133B02BFAD1FE
:1014A0005A4B80215A4A03F8011B9342FBD14FF05B
:1014B000E0254D4E4FF08039DFF884B1DFF884A18C
:1014C0004FF0FF31C5F8084D0027C6F80491C6F863
:1014D00000B1C6F8F490C6F8F0A0D5F8243DDFF8C6
:1014E000688143F4E0234B4AC5F8243DD8F81C300A
:1014F00023F07F0343F04003C8F81C30D8F82430B1
:1015000023F07F0343F04003C8F824309166D1668E
:101510001167516700F09AFA3F4B4049A363404B73
:10152000E36363236B610323AF612B613D4BC5F81C
:10153000203DD5F8FC3D43F08073C5F8FC3D3A4BA7
:101540001A6842F001021A605B680B6000F0C8FC88
:10155000C6F804913548C6F800B1C6F8F490C6F84C
:10156000F0A000F0A5FDD8F86C10314B314A41F4E1
:101570004051C8F86C101F60C3F80871C3F81871A7
:10158000C3F82871C3F83871936BDB0708D442F6AF
:101590001563294951651365936B43F00103936308
:1015A000244A264C936843F00113936000F0D6FA66
:1015B00000F01AFA00F080FD00F0C0FC00F040FAE4
:1015C0002368132BFCD900F071F92368B3F5967FDB
:1015D000FBD300F039FA00F035FA00F071FD00F0AD
:1015E00077FD30BFFDE700BF00800D40D84E010001
:1015F000E823006000000000C02A0020C4720160DF
:1016000000000020002800208102010000E400E02A
:10161000A0E400E000C00A4061FD0000C0420020DC
:101620003DFE000000002020001000E00046C32323
:101630000040084000400D400000C056C442002059
:101640001B1018200C0D111300C00F40054B4FF458
:101650002A01054A05485A641864054A9963954663
:10166000FFF7E6FE00C00A40BFAAAAAA07002000B2
:1016700000800620F8B50546002605F1140405F1A2
:10168000A407314640F8046B00F002FD04F8046C36
:101690000021204600F0FCFC002104F10C0000F0C9
:1016A000F7FC04F118003034002100F0F1FCBC42DA
:1016B000ECD12846F8BD00BFF8B5194C0546237893
:1016C000BBB9071D05F17004A5F1200604F11C004B
:1016D00000F00EFD04F1100000F00AFD201D303C6A
:1016E00000F006FDB442F1D1384600F001FD284675
:1016F000F8BD00682F4600F0BFFC002306460949EC
:1017000047F8043B3846237000F0CAFC002ED9D0BD
:10171000304600F0E5FC044600F0D6FC0460D1E75A
:1017200029430020301C00202448254BD0F880207D
:10173000244942F4405210B4C0F88020224C234A7D
:101740001C6023485A60234A1862234C5A6223487B
:10175000234A9C6246F62014D86240F6A3101A630E
:101760004FF4C862596359634FF4C841DC603F24A9
:101770009860D9619A611A681A4822F080021A4961
:101780001A601A6822F00C021A601A6822F003022A
:1017900042F002021A605C6118610020D3F8A020B8
:1017A0005DF8044B22F00202C3F8A0201A6822F46C
:1017B00080321A60DA6F1B6C0860704700C00F40FF
:1017C00000C00C402F002E0040100100220001003C
:1017D00068050C019501B200DC007A007D0058001C
:1017E0004B004000C409800C98400020074A136851
:1017F00043F48033136013689B04FCD5044AD2F889
:10180000803023F44053C2F88030704700C00C4051
:1018100000C00F4000B583B0019000F065FC019856
:1018200003B05DF804FB00BF38B5044600254FF057
:10183000FF330D4925721030C4E9003500F028FC53
:101840000120E5612084204684F82250E562256568
:10185000C4E90955C4E90C55C4E90E55C4E910554D
:10186000C4E9125538BD00BFB81C002010B50446AD
:1018700000F012FCE36C23B104F14401032208469A
:101880009847E36B23B104F13401032208469847DB
:10189000E36A23B104F1240103220846984704F1C6
:1018A000100000F025FC204610BD00BF314B40F673
:1018B000617210B5C3F8202140F2044400F00CFC22
:1018C0002D4A2E49D2F880302D4843F00303C2F848
:1018D00080302C4BC1F8604102681A4203D1D1F824
:1018E000A8319A071BD0254A4FF00041244B596379
:1018F000D2F8403143F00203C2F84031D2F840310F
:101900009B07FBD44FF400304FF0E0211C4B4FF00D
:101910000042C1F88C0219209A6300F0B1FB184A0A
:101920004FF08040154C002190630A20164B116047
:101930004FF46072C4F8A801184600F0B5FB4FF4EC
:10194000800203464FF4810040F243111860C4F84E
:1019500058311A640D4B0E4AC4F84811C3F80422DA
:101960004FF0E0224FF400310123C2F80C11C4F80B
:10197000403110BD00800D4000C00F4000002E40DF
:1019800000900D40001C1E000000002000280020D8
:10199000F9EC000008B50E4B1B6E9B0700D4FBBE94
:1019A00072B60C4B00200C4AC3F8400103F16043AF
:1019B0000A49A3F55F2311649D46BFF34F8F4FF48F
:1019C00000130748074ADB6902609B68984700BF1D
:1019D00000441F4000002E4000C00A4003002000C9
:1019E00000802020000012EB104BA020104AD96E7E
:1019F00041F4403110B4D96640F23764D96E41F4F5
:101A00004071D96654649064936C1B06FCD4094AF7
:101A100040F23761A02351649364936C13F0800308
:101A2000FBD1054A13705DF8044B704700C00F40AE
:101A300000400C4000800C402F430020704700BF46
:101A4000704700BF704700BF00BF704710B44FF031
:101A5000E023002110243148C3F8941DC3F89C4DA5
:101A60001124C3F8A00D2E48C3F89C4D1224C3F8CE
:101A7000A00D2C48C3F89C4D2B4AC3F8A00D2B4C4D
:101A800042F015022A48C3F89C4DC3F8A00D294C1A
:101A90002948C3F89C4DC3F8A00D284CC3F89C2DD1
:101AA0002748284AC3F8A04DC3F89C0DC3F8A02DC1
:101AB00002F5A022244C0C322448C3F89C4DC3F8F4
:101AC000A02D234AC3F89C0D224CC3F8A02D02F18F
:101AD0004062C3F89C4D2048C3F8A02D0C32C3F8D7
:101AE0009C0DC3F8A02D00BF00BF00BF00BF00BF0A
:101AF0000122C3F8942DBFF34F8FBFF36F8FC3F84C
:101B0000501FBFF34F8FBFF36F8FD3F8142D5DF8C5
:101B1000044B42F44032C3F8142D70473F000010CC
:101B20002500080709001000804300201300200052
:101B300021000207140000202500081309000010EE
:101B40001600202027000B1317000040180000602B
:101B50002F000B07190000701A000080F0B5B84B79
:101B60001822B84E0120B84F83B0C3F85C62B74961
:101B7000C3F86072B64DC3F86462A6F53046B54C42
:101B8000C3F86862C3F86C52C3F87052C3F8745259
:101B9000C3F8785248F20C75DA661A675A679A6782
:101BA000DA67C3F88020C3F88420C3F88820C1F81E
:101BB0002C03A94AC1F83003C1F83403C1F8380333
:101BC000C1F83C03C1F85003A169A44B0A40A448E2
:101BD000A4491343A44AA361D4F8843043F00C030E
:101BE000C4F884304FF0FF34036843F0020303600D
:101BF00003682B404FF400551A439C4B026044602D
:101C00008A689B4C13409B4A43F000538360C3682F
:101C100023F07803C360036A134023430362036A1B
:101C20001340954A2343954C43628262C26200226C
:101C3000D1F8B83023F03F0343F00103C0F8B830C7
:101C4000D1F8BC308E4923F03F0343F00103C0F8C4
:101C5000BC3040F20563026105660467C0F880305D
:101C6000456644670224C0F88430036823F0020309
:101C700003608161834B8449C46143F8042B8B4228
:101C8000FBD1774A136843F001031360136813F024
:101C90000103FBD17A48022140F2F564906140F2E1
:101CA0009940D16140F26641C2F8004242F20144DB
:101CB000C2F810127549C2F82002C2F8301240F280
:101CC00035417348C2F83442C2F84012714CC2F830
:101CD000500242F201207049C2F854120121C2F8A8
:101CE0006042C2F864025E48C2F8A030C2F8A43074
:101CF000C2F8B0104369DA07FCD5012300244FF481
:101D0000803257494361C0F8A040C0F8A420C0F811
:101D1000B0304B69DB07FCD5012300244FF40030C1
:101D20004F4A4B61C1F8A040C1F8A400C1F8B030DF
:101D30005369DF07FCD50123002458484849536103
:101D4000C2F8A040C2F8A400C2F8B0304B69DE0768
:101D5000FCD5D1F8003145F60D5221209BB24861E7
:101D6000934265D100244FF4802201233C48C1F8FE
:101D7000A040C1F8A420C1F8B0304369DD07FCD50C
:101D800001234FF400040021354A4361C0F8A0400C
:101D9000C0F8A410C0F8B0305369DC07FCD50123AB
:101DA0004FF400044FF480302D495361C2F8A04035
:101DB000C2F8A400C2F8B0304B69D807FCD50123A3
:101DC0004FF400044FF40030254A4B61C1F8A040A5
:101DD000C1F8A400C1F8B0305369D907FCD501237C
:101DE0004FF400042D481E495361C2F8A040C2F8C8
:101DF000A400C2F8B0304B69DA07FCD5D1F8003145
:101E000045F60D5221209BB24861934250D00825DF
:101E10004FF4000422490020224B234A0090157001
:101E20005A1A01232148224400F02EF903B0F0BDD4
:101E30001E4B0022C3E90022C3E9022203B0F0BD19
:101E400000801F40F9B00100F910010000841F401C
:101E5000F970010000C00F40FFFCFF1F000300A04D
:101E600000402A4000802A401200FFFFFF37F700A1
:101E70004000008000FFF07CFF000F836300020041
:101E8000F05AF05A00422A4000432A409F0418307A
:101E9000EB06180A3806180A063201260400030069
:101EA000000000700000007031430020243F00203B
:101EB0004FF400044FF4802201230848C1F8A040E9
:101EC000C1F8A420C1F8B0304369DB07FCD5012379
:101ED00010254FF0807443619CE700BF00402A400A
:101EE000F0B4154A40274FF480314FF480564FF438
:101EF00000554FF4404443F24200136913F0020FBF
:101F00000ED113F4005F0FD013F4805F0ED0002BBE
:101F1000F3DA13F4803F0BD15B060BD5F0BC7047AE
:101F2000946151619061E8E75561E6E75661E4E745
:101F30009161E2E75761E0E700800D403F4A0320EE
:101F40003F49F3EE095AD2F880304FF0000C9FED74
:101F50003D6A23F001039FED3C5A30B4C2F8803053
:101F6000C2F89000D1F8E010384DCBB2384C394867
:101F70002B6007EE903A0B0DC1F30B21F8EEE77AD8
:101F800006EE903A07EE101A334BB8EEC77A21608E
:101F9000F8EEE66A314937EEC66A37EEC55A76EE94
:101FA000C76A77EEE57A26EE266AC3ED006A25EE6B
:101FB000265AD2F8803067EEA64AC0ED007AC6EE07
:101FC000275A274885EE276AC4EEA76A75EE875A16
:101FD000FCEEE55A36EE076A15EE904ABCEEC66A8C
:101FE00043EA045376EE877AC2F8803016EE103A50
:101FF000D2F89041FCEEE77A01EA0341214317EE63
:10200000903AC2F89011C3F30B03D2F890110B432E
:102010001449C2F89031D2F8803043F00203C2F87C
:102020008030114B80F840C0C1F840314FF0E023C0
:10203000012230BCC3F80821704700BF00810D4069
:1020400000441F400000AA420000B442A04000200B
:102050009C400020A4400020B04000200000FF0F62
:1020600000E400E0002800208D0B0100F8B500BF5F
:10207000F8BC08BC9E4670475FF800F0695200004B
:102080005FF800F00D2801005FF800F00DFF000080
:102090005FF800F0751401005FF800F0E5750000CE
:1020A0005FF800F0291501005FF800F00D4801000D
:1020B0005FF800F07DF400005FF800F08D01010092
:1020C0005FF800F05D3901005FF800F07147010032
:1020D0005FF800F0253401005FF800F0F10B01001B
:1020E0005FF800F0094300005FF800F0053C0000D5
:1020F0005FF800F0B1140100450000004905000040
:1021000081140000652200001D3A0000113B000010
:10211000893B0000393D0000A93D0000693E0000F8
:102120005574000005750000717600004D770000C1
:102130002DEB00002DFB00007DFB000009290100B4
:10214000D52E01003930010039310100393201004A
:082150003D3201005133010092
:1021580080C00F40000000031900000010000000BC
:10216800E8841F4001000000FF000000FF0000009D
:10217800000000000000000018000000100000002F
:10218800E4841F4001000000FF000000FF00000081
:1021980000000000000000001F00000021EB00000C
:1021A80070C00F40000C000011000000110000007A
:1021B800E0841F40020000002C0000001200000014
:1021C800E0841F4001000000100000001100000022
:1021D800DC841F40020000002D00000012000000F7
:1021E800DC841F40010000001E00000015EB000009
:1021F80070C00F40C0000000120000001300000073
:10220800D0841F4001000000FF000000FF00000014
:102218000000000000000000130000001300000090
:10222800CC841F4001000000FF000000FF000000F8
:1022380000000000000000001C00000009EB000086
:102248001603550053004200200043007500730038
:1022580074006F006D0000001803540065006500ED
:102268006E00730079006400750069006E006F00ED
:10227800040309040902AD00050100C032080B007F
:102288000202020100090400000102020100052403
:10229800001001052401010104240206052406009A
:1022A800010705810310001009040100020A00005B
:1022B80000070502024000000705820240000008EE
:1022C8000B020202020100090402000102020100DD
:1022D8000524001001052401010104240206052437
:1022E8000602030705830310004009040300020ADD
:1022F80000000007050402400000070584024000B2
:102308000009040400020300000009211101000172
:10231800221E0007058503FF030107050603FF03C7
:10232800010000000902AD00050100C032080B00E1
:102338000202020100090400000102020100052452
:1023480000100105240101010424020605240600E9
:10235800010705810310000509040100020A0000B5
:1023680000070502020002000705820200020008B9
:102378000B0202020201000904020001020201002C
:102388000524001001052401010104240206052486
:102398000602030705830310000509040300020A67
:1023A800000000070504020002000705840200027D
:1023B80000090404000203000000092111010001C2
:1023C800221E0007058503FF030107050603FF0317
:1023D800010000000A060002EF02014001000000AF
:1023E80000000000000000000000000000000000E5
:1023F80000000000000000000000000000000000D5
:102408000548064B1B1AD90F01EBA301491002D04E
:10241800034B03B118477047C02A0020C02A002088
:102428000000000008B5054B1BB105490548AFF38E
:102438000080BDE80840FFF7E3BF00BF00000000D0
:102448000840002000AC016090F81CC04160BCF15D
:10245800020FC26001D1836818470FF00DBE00BF9C
:10246800F0B4046840F201251E462561A3B121B3EA
:1024780011F8015B013B6566256FAF0707D4154668
:10248800013E676F1AB105F8017B2A460468656941
:10249800ED07F1D5002BEAD16EB10368196F8907F2
:1024A800FAD41146013E5B6F002AF5D001F8013BD2
:1024B8000A46002EF1D1F0BC704790F83C50D9E79D
:1024C800324B334930B5D3E911542079C8771A6CA7
:1024D80095F804C081F81CC0087752B1B2F5004FD6
:1024E80023D32C4911442A4A1964D07682F81BC098
:1024F80030BD19680F24D86C8C6540F20134CA616C
:102508000C614FF47C544C6103210468246883F8FF
:102518003D10214B9C4226D1037F4260022BC260B2
:1025280026D18368BDE8304018472D68E98B090437
:1025380022D492B2EA832168EC8BA4B2EC82CC8BD1
:10254800240405D5CC8BC2F3080204F47E4422434C
:10255800CA83CA8B92B2CA8200210D4A1964D07606
:1025680082F81BC030BD23461146BDE830401847ED
:10257800BDE830400FF080BDE98BC2F3080E92B27F
:1025880001F47E4141EA0E01E983D4E79C3400203E
:1025980000800E400180FFFF69000000324B334984
:1025A80030B5D3E911542079C8771A6C95F804C06E
:1025B80081F81CC0087752B1B2F5004F23D32C49DB
:1025C80011442A4A1964D07682F81BC030BD1968B4
:1025D8000F24D86C8C6540F20134CA610C614FF449
:1025E8007C544C6103210468246883F83D10214B16
:1025F8009C4226D1037F4260022BC26026D18368A9
:10260800BDE8304018472D68E98B090422D492B2FE
:10261800EA832168EC8BA4B2EC82CC8B240405D528
:10262800CC8BC2F3080204F47E442243CA83CA8BCB
:1026380092B2CA8200210D4A1964D07682F81BC072
:1026480030BD23461146BDE830401847BDE830404C
:102658000FF012BDE98BC2F3080E92B201F47E416D
:1026680041EA0E01E983D4E74C34002000800E4093
:102678000180FFFF690000000023C0E90012C0E9E3
:102688000233C0E90433C0E90633C0E90833C0E9BE
:102698000A33C0E90C3383638387C0E91033C0E988
:1026A8001233704743682DE9F04FD3E90041814D5B
:1026B8004FF0B80A22684FF0020822EA01027E4968
:1026C8002260AA6911407D4A0A43AA6190F810E085
:1026D8007B4A03EB0E0603EB8E0E317C02EB0111F5
:1026E8008968C1F800A090F811C003EB0C050CF143
:1026F8000A0C95F8241002EB01118968C1F800A0B2
:10270800817C03EB010903EB810199F838B002EBF6
:102718000B1BDBF808B0CBF800A0D4F800A05F686A
:102728004AEA070AC4F800A0347CDEF814E002EB99
:1027380004146468C4F800E095F8244053F82CC0E9
:1027480002EB04146468C4F800C0C96B99F83840F7
:1027580002EB0412526811609A6C99F844101160E7
:102768001A6A317F5B6B116095F830201A600F226E
:102778000368C3F810809A65C27C002A31D072B60B
:10278800C37CDC0708D54FF0E0214469D1F88021EB
:1027980022408262C1F88021990708D54FF0E021D4
:1027A8008469D1F884212240C262C1F884215A0781
:1027B80008D54FF0E021C469D1F88821224002638E
:1027C800C1F888211F0708D54FF0E021046AD1F825
:1027D8008C2122404263C1F88C21DE0655D462B6B2
:1027E8000368384C8268A24259D0324A84609269A0
:1027F8003549C2F30116C2F38262344D51F82610EE
:102808000132B1FBF2F2AA4231D80022C2600024A0
:1028180003211C610724596201211A641C6619618D
:10282800C37C13B3DD0704D5816A4FF0E022C2F8F8
:1028380000119C0704D5C16A4FF0E022C2F80411C8
:10284800590704D5016B4FF0E022C2F808111A07A6
:1028580004D5416B4FF0E022C2F80C11DB0604D519
:10286800826B4FF0E023C3F81021BDE8F08F1849C0
:10287800A1FB0251090DB2FBF1F2A24288BF01315E
:10288800B1F5817F0DD3134AC0E74FF0E022416ACA
:10289800D2F890310B408363C2F890319FE7C26849
:1028A800B5E70229B1D902394C08220242EA0442AA
:1028B8000A43ABE700C00F40CFFFFFE3100000085A
:1028C8004811002000093D00740E0020FF083D005B
:1028D80083DE1B43FF7F7F000BB1FFF7C1BD70474D
:1028E8004368D3E900120968114200D1704710B556
:1028F80002680446002005211061227C1344187CDC
:102908000FF060F9627C63680521134493F8240092
:102918000FF058F96368A27C05211344BDE8104004
:1029280093F838000FF04EB908B5084A0849094825
:10293800FFF7A2FE084A09490948FFF79DFE094A20
:1029480009490A48FFF798FE08BD00BF200B002080
:1029580000003A404C340020B00A002000C0394042
:102968009C340020400A002000403940EC3400200C
:1029780090F8A32090F8A200101A704790F8A2309F
:1029880090F8A3209A4205D95A1C034480F8A22043
:10299800987E70474FF0FF30704700BF00207047A7
:1029A800704700BF036D0BB101207047406D0038C0
:1029B80018BF0120704700BF704700BF10B504461C
:1029C800806D18B113F0A2FE0023A365236D2BB10F
:1029D80004F11800BDE8104007F044BB636D002BFC
:1029E800F6D110BD012BF0B5054695B03DD0022BB0
:1029F80040F20A2001F104010CBF03460023684697
:102A080007F048FC129B002B38D05C20002610F001
:102A18008DFF214B04AF0446C0E90036019B3946BF
:102A2800183040F80C3C1D4B40F8103C029B40F815
:102A3800083C9DF80C3000F8043C07F0D1FA184B1C
:102A48004FF47A72A665A360164B6E602B606368BC
:102A58002E730133AA602C616360134B38460093D0
:102A680007F000FB284615B0F0BD40F202630431C0
:102A7800684607F00FFC129B002BC6D1139B002B56
:102A8800C3D14FF47A71074A04AF2B732A602B61C4
:102A9800C5E90131E1E700BF1C0D0020780D0020D9
:102AA800F80C0020B40C0020C40B002010B504461C
:102AB800806D00B110BD4FF4807013F01FFEA0654B
:102AC800B0B10022236D02703BB101464FF4807211
:102AD800184607F0DBFCA06D10BD636D002BE9D034
:102AE80001464FF4807218460CF056FDA06D10BDDB
:102AF800014B1846A36510BD2C43002038B5056D61
:102B08006DB10BB1002038BD1146284609F0B8FC5C
:102B18000028F7D02846BDE8384009F053BE446D78
:102B2800002CEFD020460CF039FA0028EAD02046D5
:102B3800BDE838400DF06EB98A79A2F150031B0642
:102B480022D402F26C72F0B54B7985B0046D013372
:102B58000D798E784F78DBB209784CB12046019612
:102B68000095CDE90271022109F0C0FD05B0F0BD64
:102B7800406D0028FAD001960095CDE90271022136
:102B88000DF08CF805B0F0BD0020704710B5044674
:102B9800006D80B1037813F0700F00D110BD0021D3
:102BA80009F06EFC606D0028F8D000220023BDE813
:102BB80010400CF0F3B9606D0028EFD090F8313078
:102BC80013F0500FEAD000220023BDE810400CF0AB
:102BD800E5B900BF036D10B50C4682B02BB30DF1FB
:102BE800060201A9184608F0F1FF38B3BDF8043011
:102BF800BDF8062053EA020120D0C2F3451C02F0BA
:102C08001F00D20AC3F34311400084F801C0A27028
:102C18005A0A013903F01F0302F5EA622070012005
:102C280061712371A27102B010BD406D30B10DF118
:102C3800060201A90CF058F80028D7D1002002B0EC
:102C480010BD00BF036D10B50C4682B02BB30DF15B
:102C5800060201A9184608F0A9FF38B3BDF80430E8
:102C6800BDF8062053EA020120D0C2F3451C02F049
:102C78001F00D20AC3F34311400084F801C0A270B8
:102C88005A0A013903F01F0302F5EA622070012095
:102C980061712371A27102B010BD406D30B10DF1A8
:102CA800060201A90CF00EF80028D7D1002002B0C6
:102CB80010BD00BF10B5D0F884448EB00A4644B1A8
:102CC800002321466846009309F03EF980B90EB00A
:102CD80010BDD0F8881441B1234668460C940CF016
:102CE8001BFC50B900200EB010BD08460EB010BD38
:102CF800684609F07DFB0EB010BD68460CF08CFDEF
:102D08000028EFD0E3E700BF70B5D0F884548EB048
:102D180016465DB105F5896500230A4668462946C9
:102D2800009309F08FF890B90EB070BDD0F8880400
:102D38000028F9D000F589640A462B4668462146E2
:102D48000C950CF06DFB48B900200EB070BD3246F2
:102D58002946684609F056FA0EB070BD324621463B
:102D680068460CF0ADFE0028EED0DDE710B5D0F8CF
:102D780084448EB00A464CB10020012321460090BD
:102D8800684609F0E1F880B90EB010BDD0F8881493
:102D980041B1012368460C940CF0BEFB50B90020E9
:102DA8000EB010BD08460EB010BD684608F07CFD98
:102DB8000EB010BD68460CF0D5FC0028EFD0E3E754
:102DC80030B5D0F884448FB00A464CB100250123B1
:102DD80004F589616846009508F0BEFF0FB030BD64
:102DE800D0F888040028F9D000F5896101236846E5
:102DF8000C940CF0E7FE0FB030BD00BF10B5D0F852
:102E080084448EB00A463CB10023214668460093AC
:102E180009F09AF80EB010BDD0F8881431B12346E5
:102E280068460C940CF078FB0EB010BD08460EB046
:102E380010BD00BF006990B10368154A1B69934231
:102E480025D1036D63B1187810F0080007D0D86950
:102E58005B69C01A48BF6FF000407047184670475A
:102E6800436D002BFAD093F8310010F00800F6D02B
:102E7800186919685A69401A5B6862EB0303B0F174
:102E8800004F73F10003EAD36FF000407047184712
:102E980071100000036973B11A68084952698A42BF
:102EA80007D1186D08B109F077B9586D18B10CF051
:102EB8005FB8184610474FF0FF3070478D0D00007F
:102EC800036963B11A68074992698A4208D1186D83
:102ED80008B109F005BC586D08B10CF069BD704720
:102EE800184610474D0F000000B5006983B08DF8F3
:102EF800071060B10368104ADB68934215D1036D6F
:102F080043B101220DF10701184609F095FC03B001
:102F18005DF804FB406D0028F9D001220DF107018E
:102F28000CF0EAFF03B05DF804FB01220DF1070184
:102F3800984703B05DF804FB750F0000036923B3DD
:102F48001968134A10B58C6882B0944214D1186D70
:102F580048B101220DF1070109F04AF890B19DF836
:102F6800070002B010BD586D0028F8D001220DF1FD
:102F780007010BF02DFFF1E701220DF107011846BB
:102F8800A047EBE74FF0FF30EBE74FF0FF3070471B
:102F9800210E0000036D13B1586900217047436D7D
:102FA80013B1D3E90001704718461946704700BFAE
:102FB800036D13B1D86900217047436D13B1D3E98C
:102FC8000401704718461946704700BFF0B595B020
:102FD80000224FF47A74244F1831054604A88DF85E
:102FE8000C200097CDE90124CDE9122207F0A6F8BC
:102FF800129B002B2DD05C20002610F097FC019B23
:1030080004464660C36004A9029B183040F8083C97
:103018009DF80C3000F8043C144B40F8183C144B55
:1030280040F8103C06F0DCFF124B4FF47A72A760B0
:103038002B606368A66501336E602E73AA602C61ED
:1030480063600D4B04A8009307F00CF8284615B0F0
:10305800F0BD139B002BCED1064A2B732A602B613F
:10306800C5E90134EDE700BFF80C00201C0D002075
:10307800780D0020B40C0020C40B0020F8B50546DC
:1030880090F8D00408B90146F8BDD5F88434002B6F
:103098004CD0DC69D5F89004013C002854D0036872
:1030A800DB6B9847E0B1D5F8900478B303681B6CE4
:1030B8009847A8B9D5F8900440B3036801215B6C20
:1030C8009847074610B3D5F8840458BBD5F88864E8
:1030D80033466EB9D5F8900490B900200146D3E77D
:1030E800D5F88404E8B9D5F88834002BF5D007461C
:1030F80018460DF079FD06463FB1D5F8900428B181
:10310800036800215B6C984700B1A41BD5F8843490
:10311800FBB19B794FF40071994089B2A1FB04017E
:10312800F8BD002707F096FE0646E5E7D5F888348F
:10313800D5F89004B3B1D3F830440028AFD118467D
:103148000DF052FD0646E0E7184607F083FE0646F6
:10315800DBE7D5F88864002EBFD0D6F83C14A1FB75
:103168000401F8BD0028B8D01C4698E7036D13B1D8
:10317800184609F011B8406D08B10BF0F9BE4FF0D0
:10318800FF307047836C13B1184609F005B8C06C5E
:1031980008B10BF0EDBE4FF0FF307047036D33B14F
:1031A8001B7813F0700F14BF012000207047406D8A
:1031B80030B190F8313013F0500F14BF01200020C7
:1031C800704700BF90F8D03463B1D0F8843463B14D
:1031D8009A794FF40070D9699040013980B2A0FB08
:1031E80001017047184601467047D0F88804002846
:1031F800F9D0D0F83C14D0F83004A1FB0001704796
:10320800036D13B1184608F0F3BE406D08B10BF01A
:10321800DFBD4FF0FF307047836C00B583B063B1FA
:1032280001220DF10701184608F0E2FE01280CD131
:103238009DF8070003B05DF804FBC06C28B10122BB
:103248000DF107010BF0C4FDF0E74FF0FF30F1E797
:103258002DE9F043D0F890548DB04DB198462B68C5
:1032680004462846DB699847B0F5405F064604D80F
:10327800002630460DB0BDE8F0834FF4007013F01F
:103288003DFA07460028F3D00DF10409B6F1806F26
:1032980002464346294648462ED90DF033F80646DD
:1032A800384613F033FA002EE2D02B682846271D43
:1032B8001B6A984794F8C034FF2B21D0D4F8C43443
:1032C80004F5946502932846D4F8C8340393B4F8F7
:1032D800C034ADF8043099E80E000BF0B7FC94F850
:1032E800B134C4F89054002BC3D101232946384681
:1032F8001A4606F05DFFBCE707F05AFB0646CFE723
:1033080004F2944594F8CC1428460AF0AFF92846FC
:10331800C4F8905409F0A0FC0028AAD10123D4F8DD
:10332800901438461A4606F043FFA2E7036D13B11E
:10333800184609F0D5B9406D08B10CF039BB704793
:10334800836C13B1184609F0CBB9C06C08B10CF006
:103358002FBB7047036D13B1184609F06DBA406D65
:1033680008B10CF0C9BD7047836C13B1184609F059
:1033780063BAC06C08B10CF0BFBD704700B5836C70
:1033880083B08DF8071043B101220DF107011846EB
:1033980009F052FA03B05DF804FBC06C0028F9D0BC
:1033A80001220DF107010CF0A7FD03B05DF804FB45
:1033B8008A79A2F150031B0622D402F26C72F0B58E
:1033C8004B7985B0046D01330D798E784F78DBB277
:1033D80009784CB1204601960095CDE90271042187
:1033E80009F084F905B0F0BD406D0028FAD00196C7
:1033F8000095CDE9027104210CF050FC05B0F0BD38
:1034080000207047836C53B1187810F008000DD075
:10341800D8695B69C01A48BF6FF000407047C36C39
:10342800A3B193F8310010F0080000D17047186973
:1034380019685A69401A5B6862EB0303B0F1004FE0
:1034480073F10003F2D36FF0004070471846EDE7C0
:10345800036D53B1187810F008000DD0D8695B6976
:10346800C01A48BF6FF000407047436DA3B193F88E
:10347800310010F0080000D17047186919685A69BE
:10348800401A5B6862EB0303B0F1004F73F100036D
:10349800F2D36FF0004070471846EDE70369D3B1E7
:1034A8000E4810B41C68E46884420FD1186D18B136
:1034B8005DF8044B09F0C0B9586D18B15DF8044BBC
:1034C8000CF01ABD00205DF8044B704718462346DF
:1034D8005DF8044B18470020704700BF750F0000C7
:1034E80038B504460C4B806D236018B113F00EF903
:1034F8000023A365236D04F118054BB1284606F097
:10350800B1FD064B2846A36006F0ACFD204638BD49
:10351800636D002BF2D1F4E71C0D0020C40B0020D2
:1035280038B504460E4B806D236018B113F0EEF8E1
:103538000023A365236D04F118056BB1284606F036
:1035480091FD084B2846A36006F08CFD20465C21BF
:1035580010F0F0F9204638BD636D002BEED1F0E78E
:103568001C0D0020C40B002070B5264B04460569CD
:103578000360002D32D06E68013E6E6076BB2B680A
:10358800214ADB6A934233D1A86D10B113F0BEF81B
:10359800AE652B6D43B305F1180006F063FD256990
:1035A800E5B12B68194A5B68934228D1184BA86D7E
:1035B8002B6018B113F0AAF80023AB652B6D05F149
:1035C8001806C3B1304606F04DFD124B3046AB60CD
:1035D80006F048FD5C21284610F0ACF9204614217D
:1035E80010F0A8F9204670BD6B6D002BD3D1D6E73B
:1035F80028469847D3E76B6D002BE3D1E5E72846CB
:103608009847EBE7B40C0020DD05000041110000ED
:103618001C0D0020C40B002030B4029C11469C46AF
:1036280034B1012C1CD0022C0ED0002030BC7047C5
:10363800056DF5B14FF0FF33934274EB0C04F4D3EE
:10364800284630BC08F01CBF026D0AB3D36959186C
:103658004CF10003002BE8D1104630BC08F010BF35
:10366800026D62B1536959184CF10003002BDCD18B
:10367800F2E7406D0028D8D030BC0BF08FBC406D0D
:103688000028D2D0D0E900238A184CEB0303F3E7D3
:10369800406D0028C9D0D0E9042330BC8A184CEB0F
:1036A80003030BF07BBC00BF70B5244B04460569CF
:1036B8000360002D32D06E68013E6E6076BB2B68C9
:1036C8001F4ADB6A93422FD1A86D10B113F01EF880
:1036D800AE652B6D23B305F1180006F0C3FC256910
:1036E800E5B12B68174A5B68934224D1164BA86D45
:1036F8002B6018B113F00AF80023AB652B6D05F1A8
:103708001806A3B1304606F0ADFC104B3046AB604E
:1037180006F0A8FC5C21284610F00CF9204670BD84
:103728006B6D002BD7D1DAE728469847D7E76B6D42
:10373800002BE7D1E9E728469847EFE7B40C0020CB
:10374800DD050000411100001C0D0020C40B002005
:10375800F0B5D0F8906485B00446002E42D090F8B9
:10376800D05490F8D13485B1FE2B63D094F8D204AC
:1037780036283DD93368694630469B6C98470546DC
:10378800284684F8D05405B0F0BDFE2B26D090F81A
:10379800D204362849D994F8C034271DFF2B2DD0E0
:1037A800D4F8C43404F59466D4F8C8240193304698
:1037B800B4F8C0340292ADF800306B460ECB0BF073
:1037C80045FA94F8B134C4F8906463B901233146DA
:1037D80038461A4606F0ECFC054604E01F4B9B6889
:1037E8009B03D8D40025284684F8D05405B0F0BDF2
:1037F8000EF0D6F9051E18BF0125F4E704F2944629
:1038080094F8CC14304609F031FF3046C4F890647F
:1038180009F022FA0028E6D10123D4F8901438469A
:103828001A4606F0C5FC0546DDE70EF0B9F9002892
:10383800B1D1D7E7336830465B6D9847421C0346E1
:1038480094D00028CFD194F8D124FE2ACAD10321DC
:103858002E201D460EF0B6F9C5E700BF00800042D5
:1038680018484FF0290C184A0023184910B4C0F81A
:103878009424072280F8B1C44FF0FF0CC0F8A814B4
:103888004FF47F41124CC0F8AC24124AA0F8D0146F
:10389800A0F89C3480F8B53480F8CC3480F8D2C4D1
:1038A8000460C0F8A0240C490C4A5DF8044BC0F829
:1038B8008434C0F88834C0F8903480F8BC3411F0EF
:1038C800E3BF00BF782F0020F00D002000093D0065
:1038D8009C0D0020F40B0020D905000030230020A7
:1038E80080207047704700BF0846114601F0BAB8FB
:1038F80003680B4A5B6800B5934283B08DF80710E4
:1039080007D101210DF1070001F0ACF803B05DF813
:1039180004FB01220DF10701984703B05DF804FB91
:1039280009150000124BA0F120029A421DD800236D
:1039380030B4104C214602E00133202B11D051F84D
:10394800042B002AF8D120F001010B4D10460A88FB
:1039580044F8231025F813204DF6107230BC0A8065
:1039680070474FF0FF3030BC70474FF0FF30704762
:10397800E0FF2720004200208042002070B5714EF1
:103988000321714C714D30460FF0E6FE00230A22E8
:103998002968204610F064F8204610F025F8032125
:1039A800301D0FF0D9FE00230A226968204610F066
:1039B80057F8204610F018F8032106F108000FF018
:1039C800CBFE00230A22A968204610F049F82046B9
:1039D80010F00AF8032106F10C000FF0BDFE0023D9
:1039E8000A22E968204610F03BF820460FF0FCFF59
:1039F800042106F110000FF0AFFE00230A22296906
:103A0800204610F02DF820460FF0EEFF052106F1B4
:103A180018000FF0A1FE002310226969204610F05B
:103A28001FF820460FF0E0FF052106F120000FF0F7
:103A380093FE00231022A969204610F011F82046B1
:103A48000FF0D2FF032106F128000FF085FE0023B6
:103A58000A22296A204610F003F820460FF0C4FF16
:103A6800032106F12C000FF077FE00230A22696A71
:103A780020460FF0F5FF20460FF0B6FF032106F1B0
:103A880030000FF069FE00230A22A96A20460FF0D1
:103A9800E7FF20460FF0A8FF032106F134000FF0DE
:103AA8005BFE00230A22E96A20460FF0D9FF204670
:103AB8000FF09AFF032106F138000FF04DFE0023A6
:103AC8000A22296B20460FF0CBFF20460FF08CFF0F
:103AD800032106F13C000FF03FFE00230A22696B28
:103AE80020460FF0BDFF20460FF07EFF042106F1AF
:103AF80040000FF031FE00230A22A96B20460FF088
:103B0800AFFF20460FF070FF042106F148000FF0C8
:103B180023FE00230A22E96B20460FF0A1FF20466E
:103B28000FF062FF052106F150000FF015FE296C19
:103B38002046002310220FF093FF2046BDE8704076
:103B48000FF052BFD0030020E0220020B440002034
:103B580007281DD8DFE800F0070A0D10131619040E
:103B68000C4BD86A70470B4B18687047094B58685C
:103B78007047084B98687047064BD8687047054BE4
:103B8800186A7047034B586A7047024B986A704727
:103B980000207047B440002000F00101C0F340034A
:103BA800C0F38002C0F3C00C0B44C0F340111344AF
:103BB800C0F3001263441344C0F38012C0F3C01072
:103BC8000B44134418447047008808B5030A462B71
:103BD80008D0BD2B0CD044F27073984206D10B4B21
:103BE800586908BD00F00703072B09D0002008BD5D
:103BF800C0B2FFF7D1FF054B1B6C53F8200008BD7E
:103C0800C0F3C200BDE80840FFF7A2BFB4400020DF
:103C1800028802F47F4C08B5BCF58E4F4FF00003C4
:103C28000B600ED002F47841B1F5404F28D0B1F5C1
:103C3800704F0DD002F47041B1F5504F1BD01846AB
:103C480008BDC2F3C300FFF783FF01230B6008BD63
:103C5800438802F03F02C3F30A0303EBC22352096D
:103C680003D06FEAC3336FEAD333084A906904304C
:103C780000EB430008BD054B986940FA82F008BD87
:103C8800024B02F07F029869104408BDB44000203E
:103C980038B50B4D09210B4C05F158000FF05CFDB0
:103CA80020460FF0A1FEFFF769FE05F1640004212C
:103CB8000FF052FD2046BDE838400FF095BE00BF1A
:103CC800D0030020E022002030B583B005460C4622
:103CD800FFF77AFFF8B11C4B04461860A4F12002E4
:103CE8001A4B9A4215D81A4900230A4602E00133B2
:103CF800202B0ED052F8040B0028F8D124F0010430
:103D080014484DF61072258841F8234020F81350C6
:103D1800228003B030BD01A92846FFF779FF18B10A
:103D28000D4A1060FFF7FEFD2B8803F47842B2F5C8
:103D3800704F07D003F46843B3F5684F02D0024BC5
:103D48001C60CBE70234FAE7E4420020E0FF2720BA
:103D58000042002080420020E84200202DE9F04186
:103D6800564DDFF87C81AF6937F8023CBE1E03F57B
:103D780003532F339BB2012B02D9D8F80030ABB1D3
:103D88002B6C68332B644E4B1B68002B00F0938020
:103D980098474C4C00252368C8F80050002B67D181
:103DA800494C2068002843D1BDE8F081474AA7F173
:103DB8002201AE6112689661454A914213D8DFF834
:103DC80024C126F00101624602E00133202B0AD00B
:103DD80052F8044B8C42F8D13E4A002032F81320A6
:103DE8004CF823000A803C4C2068002846D13B4C04
:103DF80020680028C4D0A0F12002354B9A4214D87C
:103E0800DFF8E0C020F001000023624602E0013341
:103E1800202B0AD052F8041B8142F8D12D4A0021E8
:103E280032F813204CF82310028000232360A7E700
:103E3800A0F12002264B9A4216D8DFF8A8C000232A
:103E4800624602E00133202B0ED052F8041B0029F1
:103E5800F8D120F001001F4A01884CF8230022F80D
:103E680013104DF61072028000232360BDE8F08124
:103E780039463046FFF728FF256091E7A0F1200278
:103E8800134B9A4214D8DFF85CC020F001000023DD
:103E9800624602E00133202B0AD052F8041B884204
:103EA800F8D10C4A002132F813204CF82310028074
:103EB800002323609BE7FFF7EBFE6AE7B44000208E
:103EC800CC3D0020F83E0020F03E0020FC410020C0
:103ED800E0FF272080420020E4420020E842002042
:103EE800E03E00200042002072B63848C0F800D0FA
:103EF8003648016836480A6802604A6842608A683B
:103F08008260CA68C2600A6902614A6942618A6954
:103F18008261CA69C261046245628662C762C0F88A
:103F28003080C0F83490C0F838A0C0F83CB00164C4
:103F380062B600B54FF0E0234022214CC3F8882236
:103F48002368002B34D0022B04D10FF06DF80FF04A
:103F58006BF8FAE7FFF702FF1A4B00221968226094
:103F680000292CD01A605DF804CB72B61748016896
:103F7800174802680A6042684A6082688A60C268B4
:103F8800CA6002690A6142694A6182698A61C269D2
:103F9800CA61046A456A866AC76AD0F83080D0F870
:103FA8003490D0F838A0D0F83CB062B6E6467047F6
:103FB800054B1A6822B15DF804EB1B689F4600BDEB
:103FC800EC3E0020F43E002020400020FC41002070
:103FD800B4400020074A4FF0E0210748136810B4A6
:103FE80001240460234440205DF8044B1360C1F8A9
:103FF80008027047E83E0020EC3E00201848C0F850
:1040080000D01748016817480A6802604A68426089
:104018008A688260CA68C2600A6902614A69426144
:104028008A698261CA69C261046245628662C7623E
:10403800C0F83080C0F83490C0F838A0C0F83CB060
:10404800016400B5044B01221A60044B02221A6075
:10405800FFF7C0FF00BD00BFDC3E0020E03E0020AF
:10406800FC410020B44000201848C0F800D0174890
:10407800016817480A6802604A6842608A68826074
:10408800CA68C2600A6902614A6942618A698261D2
:10409800CA69C261046245628662C762C0F830803C
:1040A800C0F83490C0F838A0C0F83CB0016400B53E
:1040B800044B01221A60044B03221A60FFF78AFF9F
:1040C80000BD00BFDC3E0020E03E0020FC41002097
:1040D800B44000201848C0F800D0174801681748B5
:1040E8000A6802604A6842608A688260CA68C26078
:1040F8000A6902614A6942618A698261CA69C26160
:10410800046245628662C762C0F83080C0F83490A5
:10411800C0F838A0C0F83CB0016400B5044B0122D7
:104128001A60044B04221A60FFF754FF00BD00BF59
:10413800DC3E0020E03E0020FC410020B44000208E
:104148001848C0F800D01748016817480A68026084
:104158004A6842608A688260CA68C2600A69026105
:104168004A6942618A698261CA69C26104624562B8
:104178008662C762C0F83080C0F83490C0F838A0B2
:10418800C0F83CB0016400B5044B01221A60044B2E
:1041980005221A60FFF71EFF00BD00BFDC3E0020AD
:1041A800E03E0020FC410020B44000201848C0F840
:1041B80000D01748016817480A6802604A684260D8
:1041C8008A688260CA68C2600A6902614A69426193
:1041D8008A698261CA69C261046245628662C7628D
:1041E800C0F83080C0F83490C0F838A0C0F83CB0AF
:1041F800016400B5044B01221A60044B06221A60C0
:10420800FFF7E8FE00BD00BFDC3E0020E03E0020D6
:10421800FC410020B44000200F4B4DF61072196885
:104228000B8823F00F039BB2934210D0A1F1200218
:104238000A4B9A420BD80A4B21F0010103F1800086
:1042480001E0984205D053F8042B8A42F9D10120A5
:1042580070470020704700BFCC3F0020E0FF2720B8
:10426800004200200698A0F102001049086000B53D
:10427800FFF7D2FF60B10A4A01240A484FF0E02153
:1042880013680460402023441360C1F8080200BD8D
:10429800054B1A681AB15DF804EB1B689F4600BD10
:1042A800E83E0020EC3E002024400020CC3F0020C7
:1042B80008B50378722B1FD06C2B0AD00378702BAB
:1042C80010D14278632A0DD182785AB92E4B986959
:1042D80008BD4378722BF1D18378002BEED12A4B9D
:1042E800586908BD732B20D14378702B1DD1837872
:1042F800DBB9254B186C08BD83785BB14278312A4D
:1043080005D1312B3DD0322B38D0302B33D04FF064
:10431800FF3008BD4378303B092BF8D8DFE803F0BD
:104328002825221F1C191613100D184911F02AFDF3
:104338000028ECD1144BD86908BD134B586B08BD45
:10434800114B186B08BD104BD86A08BD0E4B986A04
:1043580008BD0D4B586A08BD0B4B186A08BD0A4BBF
:10436800D86808BD084B986808BD074B586808BD51
:10437800054B186808BD044B986B08BD024B1869BB
:1043880008BD014BD86B08BDB44000203C04002098
:10439800404B012210B51A600C460378722B17D0D7
:1043A8006C2B0BD00378702B24D14278632A21D14F
:1043B8008278FAB9384B01209C6110BD4378722B82
:1043C800F0D18378002BEDD1334B1046596110BDE5
:1043D800837823B14178312919D0104610BD43782C
:1043E800303B092B19D8DFE803F02D4D4945413DF5
:1043F80039353129732B02D14378702B0FD02749D7
:1044080011F0C0FC48B9244B0120DC6110BD312BF0
:104418003CD0322B0ED0302B08D0002010BD837832
:10442800002BECD11C4B01201C6410BD1A4B10460C
:104438009C6310BD184B10461C6110BD164B012023
:10444800596310BD144B0120196010BD124B012097
:10445800196310BD104B0120D96210BD0E4B01200D
:10446800996210BD0C4B0120596210BD0A4B012006
:10447800196210BD084B0120D96010BD064B012000
:10448800996010BD044B0120596010BD024B1046C5
:10449800DC6310BDF43E0020B44000203C04002042
:1044A80038B54FF0E02211241C48C2F89C4D1C4935
:1044B800C2F8A00D01201B4B1B4A08601B4D1C496C
:1044C8001C4C1D489D60DC601A6158611B4A99614B
:1044D800D96A914220D0DC6A19494FF0E02C19487A
:1044E800D9620460D3F85811174A18481160D021CE
:1044F800C3F858014023164A164882F8461080220D
:104508000021CCF8083112F071FB802200211248FA
:10451800BDE8384012F06ABB0024DDE72500080337
:10452800E43E002000280020F51C00001D1C0000AF
:10453800CD1D0000891C0000611D000081020100E2
:10454800851E00002440002020400020091B000098
:1045580000E400E0004200204C3F002000B583B09A
:104568000191FFF79DFF019801F012FC012003B0B3
:104578005DF804FB134BA1F120029A421FD80023D7
:1045880010B4114C224602E00133202B12D052F80D
:10459800040B0028F8D121F001010C4AB1F800C041
:1045A80044F8231022F813C04DF610725DF8044B3E
:1045B8000A8070474FF0FF305DF8044B70474FF0AA
:1045C800FF307047E0FF2720004200208042002093
:1045D800124BA1F120029A421CD821F001010023BC
:1045E80010B40F4C224602E00133202B0DD052F8B4
:1045F800040B8842F8D10B4A002032F8132044F803
:1046080023005DF8044B0A8070474FF0FF305DF8D7
:10461800044B70474FF0FF30704700BFE0FF272082
:104628000042002080420020014B1960704700BF03
:10463800CC3D00200846FFF73BBE00BF08461146A8
:10464800FFF7A6BE024B0021024AC3E900217047CA
:10465800D43D0020E00C002010DF00BF036818479D
:104668000B680360704700BF0B680360704700BFAA
:10467800704700BF10B504460DF010FC204610BD71
:10468800002370B504680B60237863B91DE0092D19
:1046980019D9052E19D80B68013442EA03120A60A9
:1046A800046023788BB1A3F1610CA3F1300EA3F160
:1046B8004106A3F13702BCF1050F5FFA8EF5E6D883
:1046C800A3F15702E7E77246E5E770BD0368844641
:1046D80000B51A78A2F16101052940F2C580A2F15E
:1046E8003001C9B2092940F2A780A2F14101052988
:1046F80000F2DB80373A1201D2B25978A1F1610099
:10470800052840F2A180A1F13000C0B2092806D9DD
:10471800A1F14100052800F2CA803739C8B299785A
:1047280002440020A1F1610E62F30700BEF1050FFB
:1047380040F29E80A1F13002D2B2092A40F2B28042
:10474800A1F14102052A00F2B48037390901C9B242
:10475800DA78A2F1610EBEF1050F40F29380A2F162
:10476800300E5FFA8EFEBEF1090F08D9A2F1410E94
:10477800BEF1050F00F29F80373A5FFA82FE1A7980
:104788008E44A2F161016EF30F20052940F2828068
:10479800A2F13001C9B2092906D9A2F141010529BE
:1047A80000F28C80A2F137010901C9B25A79A2F14D
:1047B800610EBEF1050F69D9A2F1300E5FFA8EFEC7
:1047C800BEF1090F07D9A2F1410EBEF1050F77D846
:1047D800373A5FFA82FE71449A7961F31740A2F181
:1047E8006101052933D9A2F13001C9B2092956D985
:1047F800A2F14101052966D8373A1201D2B2D97916
:10480800A1F1610EBEF1050F2AD9A1F1300E5FFAB0
:104818008EFEBEF1090F07D9A1F1410EBEF1050FB9
:1048280053D837395FFA81FE7244083362F31F6048
:10483800CCF800305DF804FB0901CAB25978A1F13F
:10484800610005283FF65FAF5739C8B267E7D979E5
:10485800573AA1F1610E1201BEF1050FD2B2D4D8B8
:1048680057395FFA81FEDFE7573A1201D2B244E7BF
:10487800DA785739A2F1610E0901BEF1050FC9B204
:104888003FF66DAF573A5FFA82FE78E7573A5FFA1C
:1048980082FEA0E7A2F157010901C9B286E7090122
:1048A800CAB2ACE71201D1B252E7F02225E7FF20E5
:1048B80035E7F0214CE74FF0FF0E60E7F02175E790
:1048C8004FF0FF0E87E7F02299E74FF0FF0EABE7B6
:1048D80070B50C4D0C4E2C6804F57A7403E030BFAB
:1048E8002B689C420BD3306803681B6998470028E3
:1048F800F5DD306803685B699847C0B270BD4FF05A
:10490800FF3070BDC4420020FC3E00202DE97847EE
:10491800174B10B11860BDE878871A68002AFAD1D9
:10492800144A40F2EE29144D144CDFF854802E68D6
:10493800DFF850A01A6004E0B3F5FA6FEBD80EF078
:1049480073FB0EF071FB23784BB198F80030DB074E
:1049580005D52B68DAF800209B1A0E2BDBD82B68BC
:1049680022789B1B002AE7D14B45E8D9D3E700BF43
:10497800FC3E0020E0220020C442002045430020E5
:104988004443002004430020002A38B505460C465D
:104998001BDB02B3AB1C611E5000114C03EB42023F
:1049A80011F801CF02334FEA1C1E0CF00F0C934292
:1049B80014F80EE003F804EC14F80CC003F803CC68
:1049C800EED128440023037038BD084611F08EFE4E
:1049D8000246002ADED128460023037038BD00BFF6
:1049E800B02300202DE9F04104780546002C32D090
:1049F80001460023234411F8014FDBB2002CF9D102
:104A08001E1103F00F04DFF858802421D8F80000A5
:104A180003681B689847297841B1D8F800000368F3
:104A28001B68984715F8011F0029F6D1D8F800002F
:104A380023210A4D03681B689847D8F80000A95D30
:104A480003681B689847D8F80000295D0368BDE82B
:104A5800F0411B6818472646D5E700BFB023002061
:104A6800FC3E002030B50E4D0C4683B001462B7835
:104A78005BB10190284611F039FE2246019928447D
:104A8800FFF782FF204603B030BD4F232846224659
:104A980000F8013BFFF778FF204603B030BD00BFA8
:104AA800FC4000202DE97841DFF83480D8F8006018
:104AB800036873B104460D4606F57A761DB1D8F839
:104AC80000309E4208D330BF0EF0AEFA2368002BA8
:104AD800F4D10020BDE878814FF0FF30BDE878813F
:104AE800C442002080B500AF094B01221A60094B6F
:104AF8001B68094A52F823301846FFF773FF002154
:104B08000348FFF7CFFF034B00221A6000BF80BDA8
:104B1800483F0020E03E0020E02300202DE97047B8
:104B2800CB4883B00D46CB49FFF784FD0646CA49FA
:104B3800C748FFF77FFDC94B46F001029A4200F0D3
:104B4800CD818046C649AC1CC148FFF773FDDFF82C
:104B58004C93019001AA05F10A0012F8013B0234B6
:104B6800191103F00F03844219F8011004F8041C0A
:104B780019F8033004F8033CEFD1BA49B448FFF7F9
:104B880059FD01AA019005F1120012F8013B023407
:104B9800191103F00F03844219F8011004F8041CDA
:104BA80019F8033004F8033CEFD1AF49A848FFF7E0
:104BB80041FD01AA019005F11A0012F8013B0234E7
:104BC800191103F00F03844219F8011004F8041CAA
:104BD80019F8033004F8033CEFD1A4499C48FFF7C7
:104BE80029FD01AA019005F1220012F8013B0234C7
:104BF800191103F00F03844219F8011004F8041C7A
:104C080019F8033004F8033CEFD199499048FFF7AD
:104C180011FD01AA019005F12A0012F8013B0234A6
:104C2800191103F00F03844219F8011004F8041C49
:104C380019F8033004F8033CEFD18E498448FFF794
:104C4800F9FC01AA019005F1320012F8013B023487
:104C5800191103F00F03844219F8011004F8041C19
:104C680019F8033004F8033CEFD1834905F13A0AF7
:104C78007748FFF7DFFC01AA019012F8013B0234E4
:104C8800191103F00F03A24519F8011004F8041CC8
:104C980019F8033004F8033CEFD1784905F14204D0
:104CA8006B48FFF7C7FC534601A9019011F8012B87
:104CB8000233101102F00F029C4219F8000003F8A9
:104CC800040C19F8022003F8032CEFD16C49604852
:104CD800FFF7B0FC224601A905F14A04019011F83A
:104CE800013B0232181103F00F03944219F8000037
:104CF80002F8040C19F8033002F8033CEFD16149BB
:104D08005348FFF797FC234601A905F15204019087
:104D180011F8012B0233101102F00F029C4219F80E
:104D2800000003F8040C19F8022003F8032CEFD153
:104D380055494748FFF77EFC224601A905F15A0468
:104D4800019011F8013B0232181103F00F0394424D
:104D580019F8000002F8040C19F8033002F8033CB3
:104D6800EFD14A493A48FFF765FC234601A905F106
:104D78006204019011F8012B0233101102F00F02A6
:104D88009C4219F8000003F8040C19F8022003F8F3
:104D9800032CEFD13E492E48FFF74CFC22460190E8
:104DA80005F16A0301A810F8011B02320C1101F089
:104DB8000F01934219F8044002F8044C19F8011045
:104DC80002F8031CEFD101A905F17204CDF80480A3
:104DD80011F8012B0233101102F00F029C4219F84E
:104DE800000003F8040C19F8022003F8032CEFD193
:104DF80028491748FFF71EFC2246019005F17A035F
:104E080001A810F8011B02320C1101F00F019342A6
:104E180019F8044002F8044C19F8011002F8031CB0
:104E2800EFD101A905F18204019611F8012B023393
:104E3800101102F00F029C4219F8000003F8040C4C
:104E480019F8022003F8032CEFD1134928E000BF1A
:104E5800D43D0020980400209C0400207922000002
:104E6800A0040020A4040020A8040020AC04002012
:104E7800B0040020B4040020B8040020BC040020C2
:104E8800C0040020C4040020C8040020CC04002072
:104E9800D0040020D4040020D8040020B02300202F
:104EA8001148FFF7C7FB224601AB05F18A040190C0
:104EB80013F8011B0232081101F00F01944219F88E
:104EC800000002F8040C19F8011002F8031CEFD1D5
:104ED800002085F8880003B0BDE87087034B044EB6
:104EE800D3F800802EE600BFD43D0020343F0020D8
:104EF8000010006070B582B0431C524C0E46524DF3
:104F080001A80193FFF7E2FB04F1080102462846D5
:104F1800FFF794FB01A8FFF7D9FB04F10C01024647
:104F28002846FFF78BFB01A8FFF7D0FB04F110011F
:104F380002462846FFF782FB01A8FFF7C7FB04F1EA
:104F4800140102462846FFF779FB01A8FFF7BEFBCC
:104F580004F1180102462846FFF770FB01A8FFF785
:104F6800B5FB04F11C0102462846FFF767FB01A8C0
:104F7800FFF7ACFB04F1200102462846FFF75EFB71
:104F880001A8FFF7A3FB04F1240102462846FFF716
:104F980055FB01A8FFF79AFB04F1280102462846B1
:104FA800FFF74CFB01A8FFF791FB04F12C01024627
:104FB8002846FFF743FB01A8FFF788FB04F13001FF
:104FC80002462846FFF73AFB01A8FFF77FFB04F1EA
:104FD800340102462846FFF731FB01A8FFF776FBAC
:104FE80004F1380102462846FFF728FB01A8FFF71D
:104FF8006DFB211D02462846FFF720FB01A8FFF79D
:1050080065FB04F13C0102462846FFF717FB01A89F
:10501800FFF75CFB214602462846FFF70FFB01A875
:10502800FFF754FB04F1480102462846FFF706FB48
:10503800B4F8502094F8523000203280B37002B097
:1050480070BD00BF98040020D43D002030B5831CFB
:1050580083B00D4601934278A2F16103052B21D953
:10506800A2F13003D9B209291AD9A2F14103052BBB
:1050780000F28A80A2F13704C31C01A80193FFF74C
:1050880025FB631E02460E2B00F28480DFE803F046
:1050980068635E59544F4A45403B3631231B0D0027
:1050A8001C46E9E7A2F15704E6E73D493D48FFF70A
:1050B800C5FA3B4B0020B3F8502093F852302A80B1
:1050C800AB7003B030BD384B98424ED037493548A5
:1050D800FFF7B4FAEDE7009034493248FFF7AAFA2F
:1050E800334B009A83424CD032492E48FFF7A6FA38
:1050F800DFE731492B48FFF7A1FADAE72F492948BA
:10510800FFF79CFAD5E72E492648FFF797FAD0E72C
:105118002C492448FFF792FACBE72B492148FFF79F
:105128008DFAC6E729491F48FFF788FAC1E72849D9
:105138001C48FFF783FABCE726491A48FFF77EFAAE
:10514800B7E725491748FFF779FAB2E72349154821
:10515800FFF774FAADE722491248FFF76FFAA8E79C
:1051680020491048FFF76AFAA3E7114A0F490D488A
:10517800FFF764FA0F490B48FFF75CFA1A4B1860FF
:1051880097E7194B1A60AFE7C31C01A80193FFF713
:105198009DFA8EE715490348FFF750FA89E700BFE3
:1051A80098040020D43D002001100060D4040020A1
:1051B800792200009C040020D0040020CC040020A8
:1051C800C8040020C4040020C0040020BC0400203F
:1051D800B8040020B4040020B0040020AC0400206F
:1051E800A8040020A4040020343F0020A0040020CC
:1051F800184BA0F120029A4206D821390844984257
:105208008CBF00200120704700F12043B3F5F80F50
:1052180009D86FF0C0430B441844B0F5F80F8CBFA1
:105228000020012070470C4B1B7883B10B4A904239
:105238000DD302EB0353984209D8013901448A423D
:105248008CBF002001208B4238BF0020704700200F
:10525800704700BFE0FF27203143002000000070A6
:1052680070B5042684B0431C0D460DEB060002A958
:1052780001930396FFF704FA019B1A782C2A23D08E
:10528800029C31462046FFF7B3FF60B3601E00233F
:10529800184C05F1010C10F8012F110902F00F024A
:1052A800615C05F81310A25C0CF813200133B342BB
:1052B800F1DB002E4FEA4603D8BF02231D4400232A
:1052C80000202B7004B070BD013303A90193FFF7D0
:1052D800D7F9DDE9024620463146FFF789FF10B1CC
:1052E800002EECDDD2E7044B586D2860002004B096
:1052F80070BD00BFB023002098040020034630B5DD
:1053080085B001330C4601A802A90193FFF7B8F94B
:10531800019B03A901330193FFF7B2F901A80DC856
:10532800411C002B019138DDC2EBC27103EB020C6A
:1053380000EB410000F1010E02300FE0A1F1300551
:10534800EDB2092D05D9A1F14105052D38D8373918
:10535800CDB22B4402F8013B62451ED01EF8123034
:10536800A3F16101052922D9A3F13001C9B20929A4
:1053780021D9A3F14101052920D8373B1B01DBB214
:1053880010F81210A1F16105052DD7D85739CDB203
:105398002B4402F8013B6245E0D10A4B0020B3F8E8
:1053A800502093F852302280A37005B030BD573B8F
:1053B8001B01DBB2E4E70901CBB2E1E7F023DFE749
:1053C800FF25C6E798040020034610B584B00133D2
:1053D8000C4601A802A90193FFF752F9019B03A902
:1053E80001330193FFF74CF903990E4B994203D00F
:1053F8000D48FFF7EDF848B90C4B0020B3F85020E2
:1054080093F852302280A37004B010BD074B0021DE
:105418000020B3F8502093F85230E1702280A37036
:1054280004B010BD00100060D43D00209804002096
:10543800034610B584B001330C4601A802A90193B4
:10544800FFF71EF9019B03A901330193FFF718F930
:1054580003990B4B994203D00A48FFF78BF848B9D8
:10546800094B0020B3F8502093F852302280A370E3
:1054780004B010BD044B586D2060002004B010BD6E
:1054880000100060D43D00209804002010B4046887
:105498002378CBB1224641F2013C02E012F8013FE9
:1054A80093B1203BDBB20C2B2CFA03F1F6D8CB07D7
:1054B800F4D51346002103F8011B5278202A03D1A2
:1054C80013F8012F202AFBD0036020465DF8044B17
:1054D800704700BF2DE9704392B00346B74D0E46A2
:1054E80002A80293FFF7D2FF05F15C01044611F010
:1054F80085FBA0B305F17401204611F07FFB00285D
:1055080000F0968005F18401204611F077FB002811
:1055180000F0A48005F19001204611F06FFB0028EF
:1055280059D005F19C01204611F068FB002800F0D5
:10553800028105F1B001204611F060FB8046002889
:1055480000F0B68005F1EC01204611F057FB002869
:1055580067D000233370002012B0BDE8708302A822
:10556800FFF794FF804602A8FFF790FF98F80030F5
:105578000446302B04D198F80130782B00F067816D
:10558800404611F0B7FA81462378302B03D163786F
:10559800782B00F05381204611F0ACFA80468849F8
:1055A800204611F02BFB012100285FFA89F908BF7A
:1055B800884648460CF006FB48465FFA88F10CF02E
:1055C800C5FA804B0020B5F850209B783280B37024
:1055D80012B0BDE8708302A808ACFFF757FF037844
:1055E800302B03D14378782B00F0FE8011F082FA3B
:1055F800C0B2002101900CF0E5FA01980CF01AFBFA
:1056080002467149204611F005FA204611F06EF85D
:10561800214602463046FFF7B7F9002012B0BDE830
:1056280070834FF0E023694AC3F80C2D307092E77D
:1056380002A808ACFFF72AFF0378302B03D1437880
:10564800782B00F00E8111F055FAC0B200210190BC
:105658000CF0B8FA01980CF0A3FAD1E702A8FFF70A
:1056680015FF044602A8FFF711FF23788046302B68
:1056780003D16378782B00F00681204611F03AFABE
:10568800044698F80030302B04D198F80130782B74
:1056980000F0EF80404611F02DFA8046E0B201217B
:1056A80001900CF08FFA414601980CF0BBFE88E798
:1056B80002A8FFF7EBFE0378302B02D14378782B52
:1056C80074D011F017FA002800F0968040F0010419
:1056D80004AD029B02A81B78002B3CD0FFF7D6FE36
:1056E80002780346302A03D14278782A00F09E8057
:1056F80011F000FA08F1010845F8040BB8F1040F9D
:10570800E7D13348B21C4523324900F11D0501E0B9
:1057180010F8013B1C0903F00F03854202F1020255
:105728000C5D02F8044CCB5C02F8033CF0D100237A
:1057380086F83C300FE702A8FFF7A8FE05F1A401A0
:105748000246254811F066F9B5F8502095F8523010
:105758003280B370FFE608F1FF38B8F1020F00F2AB
:105768009A80DFE808F015021B001C4BDDE90401F4
:105778001C60A0470246144908A811F04BF908A874
:1057880010F0B4FF08A902463046FFF7FDF8E2E63C
:10579800134B04981C60A0470246ECE7114B049891
:1057A8001C60DDE90512A0470246E4E7831C08A94E
:1057B80004A80493FEF764FF089884E7980400207F
:1057C80004050020E8040020180500200400FA055C
:1057D80065050020B0230020FC400020C43D0020C7
:1057E800C03D0020C83D0020831C214604A8049326
:1057F800FEF746FF0898FBE62948B21C45232949CD
:1058080000F1110501E010F8013B1C0903F00F033A
:10581800854202F102020C5D02F8044CCB5C02F8EE
:10582800033CF0D1002386F8243094E6023303A821
:1058380008A90393FEF724FF08985BE7A31C08A9AF
:1058480004A80493FEF71CFFDDF82080A7E608F102
:10585800020308A904A80493FEF712FFDDF82090BC
:1058680092E6831C214604A80493FEF709FF0898D2
:10587800EBE608F1020308A904A80493FEF700FF69
:10588800DDF820800AE7023408A904A80494FEF78A
:10589800F7FE089CF5E6044B1C60A04702466AE741
:1058A80051050020B0230020BC3D002070B5424EB9
:1058B800C0B00C460A2206F1F401054610F0C4FFF8
:1058C800002863D0052206F58871284610F0BCFF31
:1058D80070B1092206F58C71284610F0B5FF844690
:1058E80000285ED000239C462370604640B070BDFF
:1058F8006846AB79A91D84462BBB3AE0A3F1300278
:10590800D2B2092A3FD9A3F14102052A52D8373B1E
:105918001B01DAB24B78A3F16105052D1FD9A3F15C
:10592800300E5FFA8EFEBEF1090F06D9A3F14105CC
:10593800052D3CD8373B5FFA83FE724411F8023FCD
:105948000CF8012BABB1A3F16102052AD6D8573B5D
:105958001B01DAB24B78A3F16105052DDFD8573B5F
:105968005FFA83FE11F8023F72440CF8012B002BFA
:10597800E9D1002321468CF80030FFF7ABFD8446BF
:10598800604640B070BD1201D2B2C3E706F580761A
:1059980084460FCE206060466160A260E36040B03C
:1059A80070BDB6F824316046238040B070BD4FF01A
:1059B800FF0EC2E7F022ADE79804002010B5427848
:1059C80082B00C46411C2D2A019116D001A8154918
:1059D800FEF756FE019B1A782C2A1CD0124B002287
:1059E8001A60124B00201249B3F8502093F8523035
:1059F80008602280A37002B010BD0346094901A8BF
:105A080002330193FEF73CFE0B685B420B60019B7F
:105A18001A782C2AE2D1013303490193FEF730FEAC
:105A2800DFE700BF403F0020383F002098040020F7
:105A38003C3F002070B5037804460D4643B102464A
:105A480002E012F8013F1BB13B2BFAD1002313707F
:105A58000C4E204606F5947110F094F948B106F5FD
:105A68009871204610F08EF918B1002300202B7091
:105A780070BD054B0020B6F850209B782A80AB708B
:105A880070BD00BF98040020E804002038B501224A
:105A9800534B1A600378213B592B2ED8DFE803F0CB
:105AA8004D2D2D2D2D2D2D2D2D2D2D2D2D2D2D2DFE
:105AB8002D2D2D2D2D2D2D2D2D2D2D2D2D2D562DE5
:105AC8002D2D2D602D6D452D2D2D2D2D492D2D4143
:105AD8002D322D2D2D2D2D2D2D712D2D2D2D2D2DA5
:105AE8002D2D752D2D2D7D2D2D2D322D812D2D2DED
:105AF8008532892D2D922D2D2D96002213460A7060
:105B0800184638BD374A4FF0E02C374C0023B2F81E
:105B1800500092F85220CCF80C4D088018468A7034
:105B280038BDBDE83840FFF791BABDE83840FFF707
:105B3800E1B9BDE83840FFF7E1BB2A4A0023B2F8D3
:105B4800500092F8522008808A70D9E7274A084600
:105B5800274B126853F8221010F01EF90023CFE7E4
:105B6800204A0023234DB2F85000234C92F85220CB
:105B78002B60236008808A70C2E7BDE83840FFF7D1
:105B88001DBFBDE83840FFF753BC0022194C1A4826
:105B98000123226002600A70B2E7BDE83840FEF7D0
:105BA800BDBFBDE83840FFF75BBBBDE83840FFF735
:105BB8007DBE427872B901230F4C0E482360026003
:105BC8000A709DE7BDE83840FFF734BFBDE83840AC
:105BD800FFF7FABB034A0023506D086090E700BF47
:105BE800443F0020980400200400FA05E03E00200D
:105BF800E0230020483F0020F83E002070B5484CC4
:105C0800ADF5006D206803681B69984710B90DF55C
:105C1800006D70BDFEF75CFE0028F8DB242812D06A
:105C28002D2805D00328F2D13E4B01221A60EEE759
:105C38003D4B1A68002AEAD03C494FF0FF30002259
:105C480008601A60E3E70DF58066354609E0232809
:105C580012D00DF5006203F8010B934234BF1D46C4
:105C68003546FEF735FE421C2B46F0D120682D2123
:105C780003681B689847CAE700232B70FEF728FEC5
:105C8800C0B2A0F16103052B45D9A0F13005EBB2F4
:105C9800092B07D9A0F14103052B94BFA0F13705C3
:105CA8004FF0FF35FEF714FEC0B22D01A0F16103DD
:105CB800052B2DD9A0F13003DAB2092A07D9A0F1B2
:105CC8004103052B94BFA0F137034FF0FF3332781F
:105CD8001D441AB300233146134411F8012FDBB2D7
:105CE800002AF9D19D42206804D003682D211B6841
:105CF80098478CE703682B211B689847694630460C
:105D0800FFF7C4FE012882D06846FEF76BFE7EE7E7
:105D1800A0F15703DBE7A0F15705C3E71346E1E716
:105D2800FC3E0020D03D00203C3F0020403F0020AA
:105D380038B5124B1B68B3B1114D01E0FFF75EFF98
:105D4800286803681B69984704460028F6D10D4D5A
:105D58002B784BB90C4B1A682AB100200B4A012149
:105D68001860116012DF38BD2846FEF73BFE064B6F
:105D78002C701A68002AF6D0EFE700BF90230020A5
:105D8800FC3E0020FC400020D03D0020E03E0020EA
:105D9800134B002200B51A708DB0FEF7B7FD114BFA
:105DA800114A02A908A8009306930292FEF758FC2C
:105DB80042F6DF6206A90D480BF0EEFF069B08A825
:105DC800DB689847009B02A8DB68984708490948A0
:105DD800FEF72AFC084B01221A600DB05DF804FB9F
:105DE800FC400020640E002051390000A823002048
:105DF80005270000D43D002090230020024A0349D3
:105E080003480FF041BD00BF302300209522000059
:105E1800A82300202DE9F843214B05461C68013CC6
:105E28001C6014B12846BDE8F883DFF880801D4F58
:105E380098F800303E68D3B906F1040806F17004FA
:105E4800203E04F11C000DF023FD04F110000DF0BC
:105E58001FFD201D303C0DF01BFDB442F1D1404622
:105E68000DF016FD002328463B60BDE8F883306836
:105E780001F0EAFB88F80040B04681460A4948F834
:105E8800044B40460DF040FDB9F1000FD6D048460E
:105E980000F02AFC044610F05BFE0460CEE700BF69
:105EA8002C3A0020303A0020301C002029430020E2
:105EB80070B50D4D2B7803B970BD0446006801F02C
:105EC800C3FB00230646094944F8043B20462B70CF
:105ED8000DF01AFD002EEFD0304600F005FC044608
:105EE80010F036FE046070BD29430020301C0020ED
:105EF8000B4A38B51368591C11604BB1094C0A4A52
:105F08000A490B480FF0C0FC0A4B22681A6038BDDA
:105F1800094D044C284611F0B7F92560EFE700BF9A
:105F28002C3A0020303A002030230020353A000077
:105F3800443B0020243B0020343A0020704700BF37
:105F4800012801D90020704710B5044682B00846E0
:105F580003F0C6FC034601A9E0B2019300F0CAF9B8
:105F6800012002B010BD00BF024B00220249C3E964
:105F78000012704700390020600E002000F000B8C1
:105F8800014B1868704700BFC442002038B1044B69
:105F9800421E012A98BF18460368DB6818477047F5
:105FA800E022002008B5EFF3058303B908BD1346C6
:105FB8000A46014607480FF0F7FE074B91220749AA
:105FC80007480FF0F1FE002010F018FB0DF0F8FB69
:105FD8000CF03AFC241C0020341C0020601C00201B
:105FE800881C002008B500F009F800B108BDBDE81C
:105FF800084011F04DB900BF00F06CB8064BD3F85B
:10600800800010F4405006D0A3F54033186880F49F
:106018000050C0F34030704700C00F40284B1A684A
:106028002DE9F04FD20483B08246019107D54FF491
:106038008051244A1960D96F1B6C00231360019E9C
:1060480066B3DFF88080DFF888901F4DD8F80070BD
:10605800A5EB09051A4C2FBB236813F4A05FFBD0EE
:106068002368DB0422D4194B03F14001EA5843F8B2
:10607800042F8B42FAD1236C49464027B742BB46CE
:10608800504628BFB3465A46A7EB0B0710F020FB33
:10609800B6EB0B06DA44C8F80070DCD1019803B0FF
:1060A800BDE8F08FC7F140014944E7E7019A4FF492
:1060B8008053921B01920198236003B0BDE8F08FD2
:1060C80000C00C409840002044C00C40FCFF1F203A
:1060D80000002020042100B583B00DEB0100FFF77C
:1060E8009DFF032803D9019803B05DF804FB10F065
:1060F8002FFD0B230360019803B05DF804FB00BF7C
:10610800034A1368013B13600BB9024A13607047D6
:10611800D43A0020D83A00200A4A1368591C10B50E
:1061280011604BB1084C094A09490A480FF0ACFB09
:10613800094B22681A6010BDFFF754FF024C074B49
:106148002360F0E7D43A0020D83A0020302300201A
:10615800213D0000643B0020603B0020DC3A002029
:10616800074B70B51C680546013C1C600CB12846FD
:1061780070BD044E306811F097F82846346070BD41
:10618800D0390020D43900201D4A00201D49136849
:1061980010B51D4CC1E90040591C1160D3B11B4A10
:1061A8001B491C480FF070FB1B4A1368591C1160EF
:1061B800F3B1164A19491A480FF066FB194A1368D1
:1061C800591C11606BB1114A17491848BDE81040B5
:1061D8000FF05ABB164C204611F056F8154B1C60B0
:1061E800DDE7154C204611F047F8144B1C60EAE730
:1061F800134C204611F054F8124B1C60D9E700BF2D
:106208002C3A002008390020600E0020302300209E
:10621800353A0000483B0020D43A0020213D0000D8
:10622800683B0020D0390020813D00002C3B002035
:10623800343A0020303A0020D8390020D4390020E0
:10624800DC3A0020D83A00201A4A1368591C10B5C5
:106258001160D3B1184A194919480FF015FB194AAA
:106268001368591C1160F3B1134A174917480FF006
:106278000BFB174A1368591C11606BB10E4A15497C
:106288001548BDE810400FF0FFBA144C204610F036
:10629800FBFF134B1C60DDE7124C204610F0ECFFAF
:1062A800114B1C60EAE7114C204610F0F9FF104B27
:1062B8001C60D9E72C3A002030230020353A000032
:1062C8004C3B0020D43A0020213D00006C3B0020CC
:1062D800D0390020813D0000303B0020343A0020B6
:1062E800303A0020D8390020D4390020DC3A002088
:1062F800D83A0020012800D9704721B1054B0A6817
:1063080043F820207047044A024B126843F82020C3
:10631800704700BF043F0020E816002030B54FF05A
:10632800000E00F00105714505DD25B110F8013BAF
:10633800013963F31F2E012927DD023900234C0898
:1063480004F1010C00EB4C0C30F8022B844513448B
:10635800FAD1C4EBC47401EB4401012905D19CF8BE
:10636800002062F3070E1FFA8EFE9E441FFA8EF37A
:1063780003EB1E4398B200EB134025B10302C0F3B0
:1063880007209BB2184380B230BD84460023E4E75F
:1063980008B5FFF7C3FFC04380B208BD2DE9F0413F
:1063A8000E46154604464FF46B713A4A3A48FFF7D1
:1063B800F9FD002E41D0002C68D0DFF8E4C0DCF8ED
:1063C8000070002F2ED0BC4239D0384601E08442FC
:1063D80035D0C0680028FAD1002D33D036683B4646
:1063E80001E0DB68C3B19C42FBD0617A490702D562
:1063F8005A7A5207F5D45A8AAA42F2D11A68B24296
:1064080018BF002A01D0002EEBD16FF00700BDE8BD
:10641800F0813668AEF800502660658238B10020F9
:10642800BDE8F081002D2FD03368658223600020FD
:10643800E760CCF80040BDE8F081184EBBE70120CA
:10644800002DCBD1DFF85CE04FF480414FF6FF78A8
:10645800BEF80050454514D00135ADB2002FD8D054
:106468003B4602E0DB68002BD3D05A8AAA42F9D116
:10647800013989B20029EDD16FF00700AEF800505C
:10648800CEE74FF44045E9E73846DBE76FF00F0009
:10649800C6E700BF7C0F002060200020E81600201F
:1064A800EC420020122400202DE9F04F85B00D4663
:1064B800174640F2CF21DDF838900446DDF83CA0BD
:1064C80098464B4A4B48FFF76DFDB9F1000F18BFCE
:1064D800BAF1000F0CBF01210021002F08BF41F0C5
:1064E8000101002D08BF41F0010100296BD1002CEA
:1064F80069D0628A002A43D02A894FF6F7739A42F4
:1065080064D80821284601F013FA00284CD12E46F9
:106518007389072B5DD9628A98FA98F8736852BA1A
:10652800A3F802801A8000229A71DA71227C12077D
:106538001DD4328952BA9A803B6803F0F003E02BED
:1065480030D0E37A1120CDF80890A27A5146019014
:10655800304600923A4602F0A3FFAE42834602D08C
:10656800304601F01DFA584605B0BDE8F08F3A688C
:1065780002F0F002E02A0ED0328952BA9A80E0E79F
:1065880021462046FFF70AFF83460028B4D0584624
:1065980005B0BDE8F08F727B42F004027273328955
:1065A80052BA9A80637FCDE74FF4207208212420E5
:1065B80001F060FA064648B12B89002BA8D029467D
:1065C80001F0A4FBA4E76FF00F0BCCE74FF0FF3B03
:1065D800C9E7084B40F20D32074908480FF0E4FBC1
:1065E800002010F00BF80120FFF7D0FC0CF02CF97C
:1065F800980F002060200020D4200020881C002054
:1066080070B582B0069C002C18BF002A0CBF4FF052
:10661800010C4FF0000C002908BF4CF0010CBCF134
:10662800000F13D190B1056835B92546CDE900456D
:10663800FFF73AFF02B070BD05F0F00CBCF1E00FB7
:10664800F3D02668B54204D10546EFE76FF00F0096
:10665800F0E76FF00300EDE710B50446114A40F289
:10666800A3411148FFF79EFCD4B1104B1A68A2420F
:1066780006D03AB1D3682BB1A34209D01A46F8E73D
:10668800E2681A6021460020BDE8104003F0B6B861
:10669800E36821460020D360BDE8104003F0AEB89F
:1066A80010BD00BF140F002060200020EC42002025
:1066B80010B1026801B102B970470B68002BFBD01A
:1066C800084B1B68002BF7D010B400E002681C6868
:1066D800944201D10A681A60DB68002BF6D15DF894
:1066E800044B7047EC42002000F11003DBB2102B82
:1066F80004D8034B404253F82000704705207047E8
:106708002C15002008B500F091FF002380F85130C7
:1067180008BD00BF08B500F089FF002380F870307D
:1067280008BD00BFF0B50446006883B00F461646A2
:106738001D46002834D0A3880289B7F80001043028
:1067480013FA80F0904237DC3946204600F0D0FE3C
:1067580008B103B0F0BD76BAA38802220DF1060194
:106768002068ADF8066001F069FB0028F1D1A38824
:106778000222002D0DF1060113440CBF4FF4807066
:106788004FF4C0709BB2ADF80600A380206801F0FA
:1067980055FB0028DDD1A3880233A38003B0F0BDE8
:1067A8004FF4207240F2AA51382001F063F92060BA
:1067B80010B10C23A380BFE74FF0FF30C9E700BF3B
:1067C8002DE9F043044685B000680D461646DDF80D
:1067D80034800F9F002853D0A288B5F800C10CF16F
:1067E8000A0C1FFA8CFCB8F1000F03D00E998C44E8
:1067F8001FFA8CFC27B1B7F800118C441FFA8CFCE7
:1068080094440289944549DC324629462046FFF7DC
:1068180089FF0C9B03A920681ABAA3880392042253
:1068280001F00CFB48BBA68806F106091FFA89F996
:10683800A4F80490B8F1000F0BD00E9B41462068D5
:106848009DB24B462A4601F0F9FAB0B9A3881D4417
:10685800A58027B13946204600F04AFE68B9A188CC
:10686800331D02222068A1EB09019BB249BAADF899
:106878000A100DF10A0101F0E1FA05B0BDE8F08354
:106888004FF4207240F2AA513820019301F0F2F837
:10689800019B206010B10C22A2809EE74FF0FF30D0
:1068A800EBE700BF10B5C2B0044601A800F0DEFC5B
:1068B8000123FF2201A92046FFF734FF42B010BD93
:1068C80010B5C2B00446012201A800F05DFD012305
:1068D800FF2201A92046FFF725FF42B010BD00BFE7
:1068E80030B5ADF5077D0D460446114604A80022D3
:1068F80000F04AFD45A800F0F3FC2B7BDBB1E388F0
:1069080073B10A220023204604AC45A9CDE900232F
:10691800CDE902340C22FFF753FF0DF5077D30BD9A
:106928000C2245A92046FFF7FDFE0028F5D10123DA
:106938000A22E380E6E741F29412E3E7F0B5C7B034
:106948000D4604461046164600F070FE014605A89E
:1069580000F08CFC2B7BDBB1E38873B10A2720465F
:1069680001960424AB7A0025012205A90097CDE9F8
:106978000245FFF725FF47B0F0BD012205A92046D3
:10698800FFF7D0FE0028F6D101230A27E380E6E7C7
:106998007827E4E7F0B5ADF5097D17460D460122E5
:1069A8001946044606A81E4600F0EEFC394647A8DC
:1069B80000F05CFC2B7B33B30127E3888DF81E7253
:1069C800BBB10A2347AA009306A903922122B6F86D
:1069D8008E01AB7A45BA204604ACADF814500625B2
:1069E8000194029500250495FFF7EAFE0DF5097D4F
:1069F800F0BD212206A92046FFF794FE0028F5D114
:106A08000A23E780DEE77823DCE700BF70B5144689
:106A1800ADF5067D0E4600222146054604A800F085
:106A2800B3FC2146012245A800F0AEFC337BDBB164
:106A3800EB8873B10A22002345AC04A92846CDE9A6
:106A48000023CDE902340C22FFF7BAFE0DF5067DCE
:106A580070BD0C2204A92846FFF764FE0028F5D172
:106A680001230A22EB80E6E77822E4E770B5ADF56A
:106A7800067D1446054610460E4600F0D7FD014631
:106A880004A800F0F3FB214645A800F087FB337B00
:106A9800E3B1EB887BB10A2204ACB37A45A9009232
:106AA8000394002428460C22CDE90144FFF788FE10
:106AB8000DF5067D70BD0C2245A92846FFF732FE6C
:106AC8000028F5D101230A22EB80E5E77822E3E7E5
:106AD80030B50C46C3B089B105460A7801A800F064
:106AE800B1FC002394F84E2101A92846FFF71AFEAD
:106AF80010B9EB880133EB8043B030BD084643B092
:106B080030BD00BF70B51446C6B0012205460E461A
:106B180005A8214600F038FC4FF482720021204677
:106B280010F064F8D4F884311BB1D4F888112046E9
:106B38009847337BE3B1EB887BB10A23009310229B
:106B4800B37A05A901942846B4F8004102940024B8
:106B58000394FFF735FE46B070BD102205A92846FC
:106B6800FFF7E0FD0028F6D10123EB800A23E5E7D3
:106B78007823E3E72DE9F04F154687B00C46074622
:106B880000F054FD0190A1692846FFF7A1FF0646D1
:106B980018B1304607B0BDE8F08F384600F046FD22
:106BA800A37B8046DB0600F1C38008F13C0A04F1B0
:106BB8000F0908F148085AF8041F19B199F800306C
:106BC800D8065DD4C24509F10109F4D1A37C13F0BC
:106BD800010240F0C48003929A0762D4019B04F139
:106BE8001409DDF80C8003F13C0ACB464833CDE9A3
:106BF800046726465446029354F8047F4FB19BF825
:106C08000020D30659D4900665D4510671D41206D3
:106C18007ED4029B0BF1010B9C42EDD13446059FBB
:106C2800049E94F90230CDF80C80002B31DB6B897F
:106C3800A346039ADDF808801A446A815AF8044F7B
