:0200000460009A
:100000004643464200000156000000000103030081
:1000100000000000000000000000000000000000E0
:1000200000000000000000000000000000000000D0
:1000300000000000000000000000000000000000C0
:1000400000000000010408000000000000000000A3
:100050000000800000000000000000000000000020
:100060000000000000000000000000000000000090
:100070000000000000000000000000000000000080
:10008000EB04180A063204260000000000000000FD
:10009000050404240000000000000000000000002F
:1000A0000000000000000000000000000000000050
:1000B0000604000000000000000000000000000036
:1000C0000000000000000000000000000000000030
:1000D00020041808000000000000000000000000DC
:1000E0000000000000000000000000000000000010
:1000F0000000000000000000000000000000000000
:10010000D8041808000000000000000000000000F3
:100110000204180804200000000000000000000095
:1001200000000000000000000000000000000000CF
:10013000600400000000000000000000000000005B
:1001400000000000000000000000000000000000AF
:10015000000000000000000000000000000000009F
:10016000000000000000000000000000000000008F
:10017000000000000000000000000000000000007F
:10018000000000000000000000000000000000006F
:10019000000000000000000000000000000000005F
:1001A000000000000000000000000000000000004F
:1001B000000000000000000000000000000000003F
:1001C000000100000010000001000000000000001D
:1001D000000001000000000000000000000000001E
:1001E000000000000000000000000000000000000F
:1001F00000000000000000000000000000000000FF
:10020000FFFFFFFFFFFFFFFFFFFFFFFFFFFFFFFFFE
:10021000FFFFFFFFFFFFFFFFFFFFFFFFFFFFFFFFEE
:10100000D10020434D1600600000000000000000E9
:10101000201000600010006000DC01600000000093
:101020000000006000E8010000000000FFFFFFFF7B
:10103000FFFFFFFFFFFFFFFFFFFFFFFFFFFFFFFFC0
:10104000FFFFFFFFFFFFFFFFFFFFFFFFFFFFFFFFB0
:10105000FFFFFFFFFFFFFFFFFFFFFFFFFFFFFFFFA0
:10106000FFFFFFFFFFFFFFFFFFFFFFFFFFFFFFFF90
:10140000814205D051F8043B40F8043B8242F9D8B0
:10141000704700BF044A05494FF0000342F8043BFF
:101420009142FBD8704700BFC02A002060500020C6
:101430002DE98848BFF34F8F00BF00BF00BF00BF3A
:1014400000F0BAFB684B0822C3F8542100BF00BF6C
:1014500000BF00BF00BF00BF00BF00BF00BF00BF94
:1014600000BF00BF00BF00BF00BF00BF5F4A6049B0
:101470006048FFF7C5FF604A60496148FFF7C0FF59
:10148000604CFFF7C7FF4FF470004FF0E0210023DE
:101490005D4AC1F8880D44F823200133B02BFAD1FE
:1014A0005A4B80215A4A03F8011B9342FBD14FF05B
:1014B000E0254D4E4FF08039DFF884B1DFF884A18C
:1014C0004FF0FF31C5F8084D0027C6F80491C6F863
:1014D00000B1C6F8F490C6F8F0A0D5F8243DDFF8C6
:1014E000688143F4E0234B4AC5F8243DD8F81C300A
:1014F00023F07F0343F04003C8F81C30D8F82430B1
:1015000023F07F0343F04003C8F824309166D1668E
:101510001167516700F058FB3F4B4049A363404BB4
:10152000E36363236B610323AF612B613D4BC5F81C
:10153000203DD5F8FC3D43F08073C5F8FC3D3A4BA7
:101540001A6842F001021A605B680B6000F086FDC9
:10155000C6F804913548C6F800B1C6F8F490C6F84C
:10156000F0A000F075FED8F86C10314B314A41F410
:101570004051C8F86C101F60C3F80871C3F81871A7
:10158000C3F82871C3F83871936BDB0708D442F6AF
:101590001563294951651365936B43F00103936308
:1015A000244A264C936843F00113936000F094FBA7
:1015B00000F0D8FA00F030FE00F07EFD00F0FEFAF8
:1015C0002368132BFCD900F02FFA2368B3F5967F1C
:1015D000FBD300F0F7FA00F0F3FA00F011FE00F090
:1015E00033FE30BFFDE700BF00800D40588A010088
:1015F0007025006000000000C02A0020CCAF016010
:1016000000000020002800205935010000E400E01F
:10161000A0E400E000C00A40452E0100704F002009
:10162000212F010000002020001000E00046C3230D
:101630000040084000400D400000C056744F00209C
:101640001B1018200C0D111300C00F40054B4FF458
:101650002A01054A05485A641864054A9963954663
:10166000FFF7E6FE00C00A40FFAAAAAA0700200072
:1016700000000620F8B50546002605F1140405F122
:10168000A407314640F8046B00F0BEFD04F8046C7A
:101690000021204600F0B8FD002104F10C0000F00C
:1016A000B3FD04F118003034002100F0ADFDBC4260
:1016B000ECD12846F8BD00BFF8B5194C0546237893
:1016C000BBB9071D05F17004A5F1200604F11C004B
:1016D00000F09EFD04F1100000F09AFD201D303C4A
:1016E00000F096FDB442F1D1384600F091FD284655
:1016F000F8BD00682F4600F0AFFD002306460949FB
:1017000047F8043B3846237000F09AFD002ED9D0EC
:10171000304600F0A5FD044600F06EFD0460D1E700
:101720000B500020341F00202448254BD0F8802087
:10173000244942F4405210B4C0F88020224C234A7D
:101740001C6023485A60234A1862234C5A6223487B
:10175000234A9C6246F62014D86240F6A3101A630E
:101760004FF4C862596359634FF4C841DC603F24A9
:101770009860D9619A611A681A4822F080021A4961
:101780001A601A6822F00C021A601A6822F003022A
:1017900042F002021A605C6118610020D3F8A020B8
:1017A0005DF8044B22F00202C3F8A0201A6822F46C
:1017B00080321A60DA6F1B6C0860704700C00F40FF
:1017C00000C00C402F002E0040100100220001003C
:1017D00068050C019501B200DC007A007D0058001C
:1017E0004B004000C409800C2C4D0020074A1368B0
:1017F00043F48033136013689B04FCD5044AD2F889
:10180000803023F44053C2F88030704700C00C4051
:1018100000C00F4000B583B0019000F00DFD0198AD
:1018200003B05DF804FB00BF38B5044600254FF057
:10183000FF330D4925721030C4E9003500F0E4FC97
:101840000120E5612084204684F82250E562256568
:10185000C4E90955C4E90C55C4E90E55C4E910554D
:10186000C4E9125538BD00BF1C20002010B5044645
:1018700000F0DAFCE36C23B104F1440103220846D2
:101880009847E36B23B104F13401032208469847DB
:10189000E36A23B104F1240103220846984704F1C6
:1018A000100000F0B5FC204610BD00BF43690A4A95
:1018B00003EB011010B4037A084C02EB0313D3E9D5
:1018C00001321460C2681A6003690BB142691A6080
:1018D0005DF8044B704700BF1014002061F8010050
:1018E0004369027E03EB021292F808C08C451CD0BB
:1018F0001A7AFF2A19D0914210B5044616D01A7EE2
:10190000FF2A06D00121D3E9002312681A4201D12F
:10191000217610BD064B0522204603EB0C135B68B5
:101920001A60FFF7C3FF2176F3E770470021EAE76B
:101930001014002043690A4A03EB011010B490F818
:101940002830084C02EB0313D3E901321460C26A59
:101950001A60036B0BB1426B1A605DF8044B704761
:101960001014002061F801004369427E03EB02126B
:1019700092F828C08C451ED093F82820FF2A1AD050
:10198000914210B5044617D093F83820FF2A06D0AC
:101990000121D3E9002312681A4201D1617610BDFA
:1019A000064B0522204603EB0C135B681A60FFF719
:1019B000C1FF6176F3E770470021EAE710140020C9
:1019C000164942698B6B23F47C0343F4802370B582
:1019D0008B630446124DD2E900130A681A43036967
:1019E0000A60022200211A610E4A19619A640122DA
:1019F0005A629D624FF43035DD624FF001159E6CE6
:101A00001E6519629D651A61017EFFF74FFF617EB9
:101A10002046BDE87040FFF78DBF00BF00C00F40FB
:101A2000B80B05053B372819314B40F6617210B5EC
:101A3000C3F8202140F2044400F016FC2D4A2E4940
:101A4000D2F880302D4843F00303C2F880302C4B8D
:101A5000C1F8604102681A4203D1D1F8A8319A074F
:101A60001BD0254A4FF00041244B5963D2F8403136
:101A700043F00203C2F84031D2F840319B07FBD457
:101A80004FF400304FF0E0211C4B4FF00042C1F802
:101A90008C0219209A6300F0EBFB184A4FF080404B
:101AA000154C002190630A20164B11604FF46072B0
:101AB000C4F8A801184600F0BBFB4FF480020346AF
:101AC0004FF4810040F243111860C4F858311A6491
:101AD0000D4B0E4AC4F84811C3F804224FF0E0221F
:101AE0004FF400310123C2F80C11C4F8403110BD8D
:101AF00000800D4000C00F4000002E4000900D40BF
:101B0000001C1E000000002000280020DD1D010038
:101B100008B50E4B1B6E9B0700D4FBBE72B60C4B78
:101B200000200C4AC3F8400103F160430A49A3F5C1
:101B30005F2311649D46BFF34F8F4FF40013074896
:101B4000074ADB6902609B68984700BF00441F405A
:101B500000002E4000C00A4003002000008020202A
:101B6000000012EB104BA020104AD96E41F4403116
:101B700010B4D96640F23764D96E41F44071D96629
:101B800054649064936C1B06FCD4094A40F237619C
:101B9000A02351649364936C13F08003FBD1054A36
:101BA00013705DF8044B704700C00F4000400C40BC
:101BB00000800C4011500020704700BF704700BFEC
:101BC000704700BF00BF704710B44FF0E023002102
:101BD00010243148C3F8941DC3F89C4D1124C3F858
:101BE000A00D2E48C3F89C4D1224C3F8A00D2C481C
:101BF000C3F89C4D2B4AC3F8A00D2B4C42F01502A4
:101C00002A48C3F89C4DC3F8A00D294C2948C3F8B5
:101C10009C4DC3F8A00D284CC3F89C2D2748284A9A
:101C2000C3F8A04DC3F89C0DC3F8A02D02F5A02267
:101C3000244C0C322448C3F89C4DC3F8A02D234AF1
:101C4000C3F89C0D224CC3F8A02D02F14062C3F8EA
:101C50009C4D2048C3F8A02D0C32C3F89C0DC3F84E
:101C6000A02D00BF00BF00BF00BF00BF0122C3F80E
:101C7000942DBFF34F8FBFF36F8FC3F8501FBFF387
:101C80004F8FBFF36F8FD3F8142D5DF8044B42F4E0
:101C90004032C3F8142D70473F000010250008079C
:101CA00009001000605000201300200021000207EE
:101CB0001400002025000813090000101600202041
:101CC00027000B1317000040180000602F000B07BF
:101CD000190000701A000080F0B5B84B1822B84EF9
:101CE0000120B84F83B0C3F85C62B749C3F8607293
:101CF000B64DC3F86462A6F53046B54CC3F86862C9
:101D0000C3F86C52C3F87052C3F87452C3F87852D7
:101D100048F20C75DA661A675A679A67DA67C3F889
:101D20008020C3F88420C3F88820C1F82C03A94A76
:101D3000C1F83003C1F83403C1F83803C1F83C03DB
:101D4000C1F85003A169A44B0A40A448A449134315
:101D5000A44AA361D4F8843043F00C03C4F884305F
:101D60004FF0FF34036843F00203036003682B4025
:101D70004FF400551A439C4B026044608A689B4CA8
:101D800013409B4A43F000538360C36823F07803F9
:101D9000C360036A134023430362036A1340954AF6
:101DA0002343954C43628262C2620022D1F8B8306C
:101DB00023F03F0343F00103C0F8B830D1F8BC3042
:101DC0008E4923F03F0343F00103C0F8BC3040F2DA
:101DD0000563026105660467C0F8803045664467A4
:101DE0000224C0F88430036823F002030360816199
:101DF000834B8449C46143F8042B8B42FBD1774A5F
:101E0000136843F001031360136813F00103FBD15F
:101E10007A48022140F2F564906140F29940D16124
:101E200040F26641C2F8004242F20144C2F8101288
:101E30007549C2F82002C2F8301240F235417348A9
:101E4000C2F83442C2F84012714CC2F8500242F259
:101E500001207049C2F854120121C2F86042C2F850
:101E600064025E48C2F8A030C2F8A430C2F8B010D4
:101E70004369DA07FCD5012300244FF48032574927
:101E80004361C0F8A040C0F8A420C0F8B0304B694E
:101E9000DB07FCD5012300244FF400304F4A4B618F
:101EA000C1F8A040C1F8A400C1F8B0305369DF0701
:101EB000FCD501230024584848495361C2F8A0408A
:101EC000C2F8A400C2F8B0304B69DE07FCD5D1F8E7
:101ED000003145F60D5221209BB24861934265D1F5
:101EE00000244FF4802201233C48C1F8A040C1F8EF
:101EF000A420C1F8B0304369DD07FCD501234FF4BD
:101F000000040021354A4361C0F8A040C0F8A41085
:101F1000C0F8B0305369DC07FCD501234FF400044E
:101F20004FF480302D495361C2F8A040C2F8A4009C
:101F3000C2F8B0304B69D807FCD501234FF4000438
:101F40004FF40030254A4B61C1F8A040C1F8A4000D
:101F5000C1F8B0305369D907FCD501234FF4000410
:101F60002D481E495361C2F8A040C2F8A400C2F82F
:101F7000B0304B69DA07FCD5D1F8003145F60D5287
:101F800021209BB24861934250D008254FF40004B1
:101F900022490020224B234A009015705A1A01232F
:101FA0002148224400F03CF903B0F0BD1E4B002252
:101FB000C3E90022C3E9022203B0F0BD00801F4044
:101FC000F9B00100F910010000841F40F970010010
:101FD00000C00F40FFFCFF1F000300A000402A408C
:101FE00000802A401200FFFFFF37F700400000800A
:101FF00000FFF07CFF000F8363000200F05AF05AEC
:1020000000422A4000432A409F041830EB06180A79
:102010003806180A0632012604000300000000708A
:102020000000007013500020644300204FF40004AF
:102030004FF4802201230848C1F8A040C1F8A42031
:10204000C1F8B0304369DB07FCD5012310254FF000
:10205000807443619CE700BF00402A40F0B4154AF9
:1020600040274FF480314FF480564FF400554FF421
:10207000404443F24200136913F0020F0ED113F4EF
:10208000005F0FD013F4805F0ED0002BF3DA13F44F
:10209000803F0BD15B060BD5F0BC7047946151615A
:1020A0009061E8E75561E6E75661E4E79161E2E7B0
:1020B0005761E0E700800D403F4A03203F49F3EEBF
:1020C000095AD2F880304FF0000C9FED3D6A23F0A2
:1020D00001039FED3C5A30B4C2F88030C2F8900042
:1020E000D1F8E010384DCBB2384C39482B6007EEB0
:1020F000903A0B0DC1F30B21F8EEE77A06EE903A19
:1021000007EE101A334BB8EEC77A2160F8EEE66A94
:10211000314937EEC66A37EEC55A76EEC76A77EEB2
:10212000E57A26EE266AC3ED006A25EE265AD2F835
:10213000803067EEA64AC0ED007AC6EE275A2748DF
:1021400085EE276AC4EEA76A75EE875AFCEEE55A5B
:1021500036EE076A15EE904ABCEEC66A43EA0453AF
:1021600076EE877AC2F8803016EE103AD2F89041B7
:10217000FCEEE77A01EA0341214317EE903AC2F8F8
:102180009011C3F30B03D2F890110B431449C2F81A
:102190009031D2F8803043F00203C2F88030114B06
:1021A00080F840C0C1F840314FF0E023012230BC3C
:1021B000C3F80821704700BF00810D4000441F4054
:1021C0000000AA420000B442344D0020304D0020EF
:1021D000384D0020444D00200000FF0F00E400E0D7
:1021E00000280020653E0100F8B500BFF8BC08BC1F
:1021F0009E467047000000005FF800F0E582010095
:102200005FF800F0C57401005FF800F04D47010071
:102210005FF800F0894701005FF800F049340100E1
:102220005FF800F0F12F01005FF800F0D1760000B8
:102230005FF800F0818301005FF800F0F13C0000DE
:102240005FF800F0014801005FF800F0996E0100AE
:102250005FF800F0612501005FF800F055530000C1
:102260005FF800F0F54300005FF800F0C93E0100A0
:102270005FF800F0FD5A010045000000490500002C
:1022800081140000652200001D3A0000FD3B0000A3
:10229000753C0000253E0000953E0000553F0000C3
:1022A00041750000F17500005D770000417F00007E
:1022B000111C0100112C0100612C0100895C01003E
:1022C00055620100B9630100B9640100B9650100FC
:1022D0000D690100216A01007D6A0100556F01004E
:1022E00080C00F4000000003190000001000000033
:1022F000E8841F4001000000FF000000FF00000014
:1023000000000000000000001800000010000000A5
:10231000E4841F4001000000FF000000FF000000F7
:1023200000000000000000001F000000051C01006C
:1023300070C00F40000C00001100000011000000F0
:10234000E0841F40020000002C000000120000008A
:10235000E0841F4001000000100000001100000098
:10236000DC841F40020000002D000000120000006D
:10237000DC841F40010000001E000000F91B01006A
:1023800070C00F40C00000001200000013000000E9
:10239000D0841F4001000000FF000000FF0000008B
:1023A0000000000000000000130000001300000007
:1023B000CC841F4001000000FF000000FF0000006F
:1023C00000000000000000001C000000ED1B0100E8
:1023D00016035500530042002000430075007300AF
:1023E00074006F006D000000180354006500650064
:1023F0006E00730079006400750069006E006F0064
:10240000040309040902AD00050100C032080B00F5
:102410000202020100090400000102020100052479
:102420000010010524010101042402060524060010
:10243000010705810310001009040100020A0000D1
:102440000007050202400000070582024000000864
:102450000B02020202010009040200010202010053
:1024600005240010010524010101042402060524AD
:102470000602030705830310004009040300020A53
:102480000000000705040240000007058402400028
:1024900000090404000203000000092111010001E9
:1024A000221E0007058503FF030107050603FF033E
:1024B000010000000902AD00050100C032080B0058
:1024C00002020201000904000001020201000524C9
:1024D0000010010524010101042402060524060060
:1024E000010705810310000509040100020A00002C
:1024F0000007050202000200070582020002000830
:102500000B020202020100090402000102020100A2
:1025100005240010010524010101042402060524FC
:102520000602030705830310000509040300020ADD
:1025300000000007050402000200070584020002F3
:102540000009040400020300000009211101000138
:10255000221E0007058503FF030107050603FF038D
:10256000010000000A060002EF0201400100000025
:10257000000000000000000000000000000000005B
:10258000000000000000000000000000000000004B
:102590000548064B1B1AD90F01EBA301491002D0C5
:1025A000034B03B118477047C02A0020C02A0020FF
:1025B0000000000008B5054B1BB105490548AFF305
:1025C0000080BDE80840FFF7E3BF00BF0000000047
:1025D000984C002000E8016090F81CC04160BCF1FC
:1025E000020FC26001D18368184712F07FBE00BF9E
:1025F000F0B4046840F201251E462561A3B121B361
:1026000011F8015B013B6566256FAF0707D41546DE
:10261000013E676F1AB105F8017B2A4604686569B7
:10262000ED07F1D5002BEAD16EB10368196F890768
:10263000FAD41146013E5B6F002AF5D001F8013B48
:102640000A46002EF1D1F0BC704790F83C50D9E713
:10265000324B334930B5D3E911542079C8771A6C1D
:1026600095F804C081F81CC0087752B1B2F5004F4C
:1026700023D32C4911442A4A1964D07682F81BC00E
:1026800030BD19680F24D86C8C6540F20134CA61E2
:102690000C614FF47C544C6103210468246883F876
:1026A0003D10214B9C4226D1037F4260022BC26029
:1026B00026D18368BDE8304018472D68E98B0904AE
:1026C00022D492B2EA832168EC8BA4B2EC82CC8B48
:1026D000240405D5CC8BC2F3080204F47E442243C3
:1026E000CA83CA8B92B2CA8200210D4A1964D0767D
:1026F00082F81BC030BD23461146BDE83040184764
:10270000BDE8304012F0F2BDE98BC2F3080E92B280
:1027100001F47E4141EA0E01E983D4E76C360020E2
:1027200000800E400180FFFF69000000324B3349FA
:1027300030B5D3E911542079C8771A6C95F804C0E4
:1027400081F81CC0087752B1B2F5004F23D32C4951
:1027500011442A4A1964D07682F81BC030BD19682A
:102760000F24D86C8C6540F20134CA610C614FF4BF
:102770007C544C6103210468246883F83D10214B8C
:102780009C4226D1037F4260022BC26026D183681F
:10279000BDE8304018472D68E98B090422D492B275
:1027A000EA832168EC8BA4B2EC82CC8B240405D59F
:1027B000CC8BC2F3080204F47E442243CA83CA8B42
:1027C00092B2CA8200210D4A1964D07682F81BC0E9
:1027D00030BD23461146BDE830401847BDE83040C3
:1027E00012F084BDE98BC2F3080E92B201F47E416F
:1027F00041EA0E01E983D4E71C36002000800E4038
:102800000180FFFF690000000023C0E90012C0E959
:102810000233C0E90433C0E90633C0E90833C0E934
:102820000A33C0E90C3383638387C0E91033C0E9FE
:102830001233704743682DE9F04FD3E90041814DD1
:102840004FF0B80A22684FF0020822EA01027E49DE
:102850002260AA6911407D4A0A43AA6190F810E0FB
:102860007B4A03EB0E0603EB8E0E317C02EB01116B
:102870008968C1F800A090F811C003EB0C050CF1B9
:102880000A0C95F8241002EB01118968C1F800A028
:10289000817C03EB010903EB810199F838B002EB6D
:1028A0000B1BDBF808B0CBF800A0D4F800A05F68E1
:1028B0004AEA070AC4F800A0347CDEF814E002EB10
:1028C00004146468C4F800E095F8244053F82CC060
:1028D00002EB04146468C4F800C0C96B99F838406E
:1028E00002EB0412526811609A6C99F8441011605E
:1028F0001A6A317F5B6B116095F830201A600F22E5
:102900000368C3F810809A65C27C002A31D072B681
:10291000C37CDC0708D54FF0E0214469D1F8802161
:1029200022408262C1F88021990708D54FF0E0214A
:102930008469D1F884212240C262C1F884215A07F7
:1029400008D54FF0E021C469D1F888212240026304
:10295000C1F888211F0708D54FF0E021046AD1F89B
:102960008C2122404263C1F88C21DE0655D462B628
:102970000368384C8268A24259D0324A8460926916
:102980003549C2F30116C2F38262344D51F8261064
:102990000132B1FBF2F2AA4231D80022C260002417
:1029A00003211C610724596201211A641C66196104
:1029B000C37C13B3DD0704D5816A4FF0E022C2F86F
:1029C00000119C0704D5C16A4FF0E022C2F804113F
:1029D000590704D5016B4FF0E022C2F808111A071D
:1029E00004D5416B4FF0E022C2F80C11DB0604D590
:1029F000826B4FF0E023C3F81021BDE8F08F184937
:102A0000A1FB0251090DB2FBF1F2A24288BF0131D4
:102A1000B1F5817F0DD3134AC0E74FF0E022416A40
:102A2000D2F890310B408363C2F890319FE7C268BF
:102A3000B5E70229B1D902394C08220242EA044220
:102A40000A43ABE700C00F40CFFFFFE310000008D0
:102A50001014002000093D0038110020FF083D003F
:102A600083DE1B43FF7F7F000BB1FFF7C1BD7047C3
:102A70004368D3E900120968114200D1704710B5CC
:102A800002680446002005211061227C1344187C52
:102A900012F0D2F9627C63680521134493F8240094
:102AA00012F0CAF96368A27C05211344BDE8104006
:102AB00093F8380012F0C0B908B5084A0849094827
:102AC000FFF7A2FE084A09490948FFF79DFE094A97
:102AD00009490A48FFF798FE08BD00BFCC0D002049
:102AE00000003A401C3600205C0D002000C0394038
:102AF0006C360020EC0C002000403940BC36002031
:102B000090F8A32090F8A200101A704790F8A23015
:102B100090F8A3209A4205D95A1C034480F8A220B9
:102B2000987E70474FF0FF30704700BF002070471D
:102B3000704700BF036D0BB101207047406D003836
:102B400018BF0120704700BF704700BF10B5044692
:102B5000806D18B117F052FC0023A365236D2BB1D3
:102B600004F11800BDE8104008F00EBB636D002BA7
:102B7000F6D110BD012BF0B5054695B03DD0022B26
:102B800040F20A2001F104010CBF0346002368460D
:102B900008F012FC129B002B38D05C20002614F0A9
:102BA000F9F8214B04AF0446C0E90036019B3946D1
:102BB000183040F80C3C1D4B40F8103C029B40F88C
:102BC000083C9DF80C3000F8043C08F09BFA184BC8
:102BD0004FF47A72A665A360164B6E602B60636833
:102BE0002E730133AA602C616360134B3846009347
:102BF00008F0CAFA284615B0F0BD40F2026304316D
:102C0000684608F0D9FB129B002BC6D1139B002B02
:102C1000C3D14FF47A71074A04AF2B732A602B613A
:102C2000C5E90131E1E700BFE00F00203C100020C2
:102C3000BC0F0020780F0020700E002010B5044655
:102C4000806D00B110BD4FF4807017F0CFFBA06510
:102C5000B0B10022236D02703BB101464FF4807287
:102C6000184608F0A5FCA06D10BD636D002BE9D0DF
:102C700001464FF4807218460DF020FDA06D10BD86
:102C8000014B1846A36510BD0E50002038B5056DE8
:102C90006DB10BB1002038BD114628460AF082FC08
:102CA0000028F7D02846BDE838400AF01DBE446D24
:102CB000002CEFD020460DF003FA0028EAD0204681
:102CC000BDE838400EF038B98A79A2F150031B06EE
:102CD00022D402F26C72F0B54B7985B0046D0133E9
:102CE0000D798E784F78DBB209784CB12046019689
:102CF0000095CDE9027102210AF08AFD05B0F0BD10
:102D0000406D0028FAD001960095CDE902710221AC
:102D10000EF056F805B0F0BD0020704710B504461F
:102D2000006D80B1037813F0700F00D110BD002149
:102D30000AF038FC606D0028F8D000220023BDE8BE
:102D400010400DF0BDB9606D0028EFD090F8313023
:102D500013F0500FEAD000220023BDE810400DF020
:102D6000AFB900BF036D10B50C4682B02BB30DF1A7
:102D7000060201A9184609F0BBFF38B3BDF80430BC
:102D8000BDF8062053EA020120D0C2F3451C02F030
:102D90001F00D20AC3F34311400084F801C0A2709F
:102DA0005A0A013903F01F0302F5EA62207001207C
:102DB00061712371A27102B010BD406D30B10DF18F
:102DC000060201A90DF022F80028D7D1002002B098
:102DD00010BD00BF036D10B50C4682B02BB30DF1D2
:102DE000060201A9184609F073FF38B3BDF8043094
:102DF000BDF8062053EA020120D0C2F3451C02F0C0
:102E00001F00D20AC3F34311400084F801C0A2702E
:102E10005A0A013903F01F0302F5EA62207001200B
:102E200061712371A27102B010BD406D30B10DF11E
:102E3000060201A90CF0D8FF0028D7D1002002B06B
:102E400010BD00BF10B5D0F884448EB00A4644B11E
:102E500000232146684600930AF008F980B90EB0B5
:102E600010BDD0F8881441B1234668460C940DF08B
:102E7000E5FB50B900200EB010BD08460EB010BDE5
:102E800068460AF047FB0EB010BD68460DF056FDCF
:102E90000028EFD0E3E700BF70B5D0F884548EB0BF
:102EA00016465DB105F5896500230A466846294640
:102EB00000930AF059F890B90EB070BDD0F88804AC
:102EC0000028F9D000F589640A462B466846214659
:102ED0000C950DF037FB48B900200EB070BD32469E
:102EE000294668460AF020FA0EB070BD32462146E7
:102EF00068460DF077FE0028EED0DDE710B5D0F87B
:102F000084448EB00A464CB1002001232146009033
:102F100068460AF0ABF880B90EB010BDD0F888143E
:102F200041B1012368460C940DF088FB50B9002094
:102F30000EB010BD08460EB010BD684609F046FD43
:102F40000EB010BD68460DF09FFC0028EFD0E3E7FF
:102F500030B5D0F884448FB00A464CB10025012327
:102F600004F589616846009509F088FF0FB030BD0F
:102F7000D0F888040028F9D000F58961012368465B
:102F80000C940DF0B1FE0FB030BD00BF10B5D0F8FD
:102F900084448EB00A463CB1002321466846009323
:102FA0000AF064F80EB010BDD0F8881431B1234691
:102FB00068460C940DF042FB0EB010BD08460EB0F2
:102FC00010BD00BF006990B10368154A1B699342A8
:102FD00025D1036D63B1187810F0080007D0D869C7
:102FE0005B69C01A48BF6FF00040704718467047D1
:102FF000436D002BFAD093F8310010F00800F6D0A2
:10300000186919685A69401A5B6862EB0303B0F1EA
:10301000004F73F10003EAD36FF000407047184788
:1030200071100000036973B11A68084952698A4235
:1030300007D1186D08B10AF041B9586D18B10DF0FB
:1030400029B8184610474FF0FF3070478D0D00002B
:10305000036963B11A68074992698A4208D1186DF9
:1030600008B10AF0CFBB586D08B10DF033BD704701
:10307000184610474D0F000000B5006983B08DF869
:10308000071060B10368104ADB68934215D1036DE5
:1030900043B101220DF1070118460AF05FFC03B0AD
:1030A0005DF804FB406D0028F9D001220DF1070105
:1030B0000DF0B4FF03B05DF804FB01220DF1070130
:1030C000984703B05DF804FB750F0000036923B354
:1030D0001968134A10B58C6882B0944214D1186DE7
:1030E00048B101220DF107010AF014F890B19DF8E2
:1030F000070002B010BD586D0028F8D001220DF174
:1031000007010CF0F7FEF1E701220DF10701184667
:10311000A047EBE74FF0FF30EBE74FF0FF30704791
:10312000210E0000036D13B1586900217047436DF3
:1031300013B1D3E90001704718461946704700BF24
:10314000036D13B1D86900217047436D13B1D3E902
:103150000401704718461946704700BFF0B595B096
:1031600000224FF47A74244F1831054604A88DF8D4
:103170000C200097CDE90124CDE9122208F070F867
:10318000129B002B2DD05C20002613F003FE019B28
:1031900004464660C36004A9029B183040F8083C0E
:1031A0009DF80C3000F8043C144B40F8183C144BCC
:1031B00040F8103C07F0A6FF124B4FF47A72A7605C
:1031C0002B606368A66501336E602E73AA602C6164
:1031D00063600D4B04A8009307F0D6FF284615B096
:1031E000F0BD139B002BCED1064A2B732A602B61B6
:1031F000C5E90134EDE700BFBC0F0020E00F00205F
:103200003C100020780F0020700E0020F8B5054615
:1032100090F8D00408B90146F8BDD5F88434002BE5
:103220004CD0DC69D5F89004013C002854D00368E8
:10323000DB6B9847E0B1D5F8900478B303681B6C5A
:103240009847A8B9D5F8900440B3036801215B6C96
:103250009847074610B3D5F8840458BBD5F888645E
:1032600033466EB9D5F8900490B900200146D3E7F3
:10327000D5F88404E8B9D5F88834002BF5D0074692
:1032800018460EF043FD06463FB1D5F8900428B12C
:10329000036800215B6C984700B1A41BD5F8843407
:1032A000FBB19B794FF40071994089B2A1FB0401F5
:1032B000F8BD002708F060FE0646E5E7D5F888343B
:1032C000D5F89004B3B1D3F830440028AFD11846F4
:1032D0000EF01CFD0646E0E7184608F04DFE0646D7
:1032E000DBE7D5F88864002EBFD0D6F83C14A1FBEC
:1032F0000401F8BD0028B8D01C4698E7036D13B14F
:10330000184609F0DBBF406D08B10CF0C3BE4FF0AA
:10331000FF307047836C13B1184609F0CFBFC06C03
:1033200008B10CF0B7BE4FF0FF307047036D33B1FA
:103330001B7813F0700F14BF012000207047406D00
:1033400030B190F8313013F0500F14BF012000203D
:10335000704700BF90F8D03463B1D0F8843463B1C3
:103360009A794FF40070D9699040013980B2A0FB7E
:1033700001017047184601467047D0F888040028BC
:10338000F9D0D0F83C14D0F83004A1FB000170470C
:10339000036D13B1184609F0BDBE406D08B10CF0C5
:1033A000A9BD4FF0FF307047836C00B583B063B1A7
:1033B00001220DF10701184609F0ACFE01280CD1DD
:1033C0009DF8070003B05DF804FBC06C28B1012232
:1033D0000DF107010CF08EFDF0E74FF0FF30F1E743
:1033E0002DE9F043D0F890548DB04DB198462B683C
:1033F00004462846DB699847B0F5405F064604D886
:10340000002630460DB0BDE8F0834FF4007016F092
:10341000EDFF07460028F3D00DF10409B6F1806FE7
:1034200002464346294648462ED90DF0FDFF064682
:10343000384616F0E3FF002EE2D02B682846271D01
:103440001B6A984794F8C034FF2B21D0D4F8C434B9
:1034500004F5946502932846D4F8C8340393B4F86D
:10346000C034ADF8043099E80E000CF081FC94F8FB
:10347000B134C4F89054002BC3D1012329463846F7
:103480001A4607F027FFBCE708F024FB0646CFE703
:1034900004F2944594F8CC1428460BF079F92846A8
:1034A000C4F890540AF06AFC0028AAD10123D4F889
:1034B000901438461A4607F00DFFA2E7036D13B1CA
:1034C00018460AF09FB9406D08B10DF003BB704774
:1034D000836C13B118460AF095B9C06C08B10DF0B1
:1034E000F9BA7047036D13B118460AF037BA406D48
:1034F00008B10DF093BD7047836C13B118460AF004
:103500002DBAC06C08B10DF089BD704700B5836C51
:1035100083B08DF8071043B101220DF10701184661
:103520000AF01CFA03B05DF804FBC06C0028F9D067
:1035300001220DF107010DF071FD03B05DF804FBF0
:103540008A79A2F150031B0622D402F26C72F0B504
:103550004B7985B0046D01330D798E784F78DBB2ED
:1035600009784CB1204601960095CDE902710421FD
:103570000AF04EF905B0F0BD406D0028FAD0019672
:103580000095CDE9027104210DF01AFC05B0F0BDE3
:1035900000207047836C53B1187810F008000DD0EC
:1035A000D8695B69C01A48BF6FF000407047C36CB0
:1035B000A3B193F8310010F0080000D170471869EA
:1035C00019685A69401A5B6862EB0303B0F1004F57
:1035D00073F10003F2D36FF0004070471846EDE737
:1035E000036D53B1187810F008000DD0D8695B69ED
:1035F000C01A48BF6FF000407047436DA3B193F805
:10360000310010F0080000D17047186919685A6934
:10361000401A5B6862EB0303B0F1004F73F10003E3
:10362000F2D36FF0004070471846EDE70369D3B15D
:103630000E4810B41C68E46884420FD1186D18B1AC
:103640005DF8044B0AF08AB9586D18B15DF8044B67
:103650000DF0E4BC00205DF8044B7047184623468B
:103660005DF8044B18470020704700BF750F00003D
:1036700038B504460C4B806D236018B116F0BEFEC1
:103680000023A365236D04F118054BB1284607F00C
:103690007BFD064B2846A36007F076FD204638BD2B
:1036A000636D002BF2D1F4E7E00F0020700E0020D4
:1036B00038B504460E4B806D236018B116F09EFE9F
:1036C0000023A365236D04F118056BB1284607F0AC
:1036D0005BFD084B2846A36007F056FD20465C21A1
:1036E00013F05CFB204638BD636D002BEED1F0E794
:1036F000E00F0020700E002070B5264B04460569CF
:103700000360002D32D06E68013E6E6076BB2B6880
:10371000214ADB6A934233D1A86D10B116F06EFED8
:10372000AE652B6D43B305F1180007F02DFD25693B
:10373000E5B12B68194A5B68934228D1184BA86DF4
:103740002B6018B116F05AFE0023AB652B6D05F106
:103750001806C3B1304607F017FD124B3046AB6078
:1037600007F012FD5C21284613F018FB20461421B7
:1037700013F014FB204670BD6B6D002BD3D1D6E740
:1037800028469847D3E76B6D002BE3D1E5E7284641
:103790009847EBE7780F0020DD050000411100009D
:1037A000E00F0020700E002030B4029C11469C46B1
:1037B00034B1012C1CD0022C0ED0002030BC70473C
:1037C000056DF5B14FF0FF33934274EB0C04F4D365
:1037D000284630BC09F0E6BE026D0AB3D369591819
:1037E0004CF10003002BE8D1104630BC09F0DABEE2
:1037F000026D62B1536959184CF10003002BDCD102
:10380000F2E7406D0028D8D030BC0CF059BC406DB8
:103810000028D2D0D0E900238A184CEB0303F3E749
:10382000406D0028C9D0D0E9042330BC8A184CEB85
:1038300003030CF045BC00BF70B5244B044605697A
:103840000360002D32D06E68013E6E6076BB2B683F
:103850001F4ADB6A93422FD1A86D10B116F0CEFD3E
:10386000AE652B6D23B305F1180007F08DFC2569BB
:10387000E5B12B68174A5B68934224D1164BA86DBB
:103880002B6018B116F0BAFD0023AB652B6D05F166
:103890001806A3B1304607F077FC104B3046AB60FA
:1038A00007F072FC5C21284613F078FA204670BDC0
:1038B0006B6D002BD7D1DAE728469847D7E76B6DB9
:1038C000002BE7D1E9E728469847EFE7780F00207B
:1038D000DD05000041110000E00F0020700E002007
:1038E000F0B5D0F8906485B00446002E42D090F830
:1038F000D05490F8D13485B1FE2B63D094F8D20423
:1039000036283DD93368694630469B6C9847054652
:10391000284684F8D05405B0F0BDFE2B26D090F890
:10392000D204362849D994F8C034271DFF2B2DD056
:10393000D4F8C43404F59466D4F8C824019330460E
:10394000B4F8C0340292ADF800306B460ECB0CF0E8
:103950000FFA94F8B134C4F8906463B90123314686
:1039600038461A4607F0B6FC054604E01F4B9B6834
:103970009B03D8D40025284684F8D05405B0F0BD68
:1039800011F048FA051E18BF0125F4E704F2944629
:1039900094F8CC1430460AF0FBFE3046C4F890642C
:1039A0000AF0ECF90028E6D10123D4F89014384647
:1039B0001A4607F08FFC0546DDE711F02BFA0028C8
:1039C000B1D1D7E7336830465B6D9847421C034658
:1039D00094D00028CFD194F8D124FE2ACAD1032153
:1039E0002E201D4611F028FAC5E700BF00800042D6
:1039F00018484FF0290C184A0023184910B4C0F891
:103A00009424072280F8B1C44FF0FF0CC0F8A8142A
:103A10004FF47F41124CC0F8AC24124AA0F8D014E5
:103A2000A0F89C3480F8B53480F8CC3480F8D2C447
:103A30000460C0F8A0240C490C4A5DF8044BC0F89F
:103A40008434C0F88834C0F8903480F8BC3415F061
:103A500097BD00BF48310020B410002000093D0090
:103A600060100020B80E0020D90500009426002028
:103A700080207047704700BF0846114601F0BAB871
:103A800003680B4A5B6800B5934283B08DF807105A
:103A900007D101210DF1070001F0ACF803B05DF88A
:103AA00004FB01220DF10701984703B05DF804FB08
:103AB00009150000124BA0F120029A421DD80023E4
:103AC00030B4104C214602E00133202B11D051F8C4
:103AD000042B002AF8D120F001010B4D10460A8872
:103AE00044F8231025F813204DF6107230BC0A80DC
:103AF00070474FF0FF3030BC70474FF0FF307047D9
:103B0000E0FF2720B04E0020304F002070B5714EEE
:103B10000321714C714D304613F052F800230A22F4
:103B20002968204613F0DCF9204613F09DF90321A3
:103B3000301D13F045F800230A226968204613F06F
:103B4000CFF9204613F090F9032106F1080013F095
:103B500037F800230A22A968204613F0C1F920464D
:103B600013F082F9032106F10C0013F029F8002369
:103B70000A22E968204613F0B3F9204613F074F9DD
:103B8000042106F1100013F01BF800230A22296912
:103B9000204613F0A5F9204613F066F9052106F139
:103BA000180013F00DF8002310226969204613F065
:103BB00097F9204613F058F9052106F1200012F07C
:103BC000FFFF00231022A969204613F089F920463F
:103BD00013F04AF9032106F1280012F0F1FF002347
:103BE0000A22296A204613F07BF9204613F03CF99B
:103BF000032106F12C0012F0E3FF00230A22696A78
:103C0000204613F06DF9204613F02EF9032106F13A
:103C1000300012F0D5FF00230A22A96A204613F0D3
:103C20005FF9204613F020F9032106F1340012F069
:103C3000C7FF00230A22E96A204613F051F9204603
:103C400013F012F9032106F1380012F0B9FF002336
:103C50000A22296B204613F043F9204613F004F999
:103C6000032106F13C0012F0ABFF00230A22696B2E
:103C7000204613F035F9204613F0F6F8042106F13A
:103C8000400012F09DFF00230A22A96B204613F08A
:103C900027F9204613F0E8F8042106F1480012F055
:103CA0008FFF00230A22E96B204613F019F9204602
:103CB00013F0DAF8052106F1500012F081FF296CAB
:103CC00020460023102213F00BF92046BDE8704077
:103CD00013F0CAB8D003002044260020484D00202D
:103CE00007281DD8DFE800F0070A0D101316190485
:103CF0000C4BD86A70470B4B18687047094B5868D3
:103D00007047084B98687047064BD8687047054B5A
:103D1000186A7047034B586A7047024B986A70479D
:103D200000207047484D002000F00101C0F340031F
:103D3000C0F38002C0F3C00C0B44C0F34011134425
:103D4000C0F3001263441344C0F38012C0F3C010E8
:103D50000B44134418447047008808B5030A462BE7
:103D600008D0BD2B0CD044F27073984206D10B4B97
:103D7000586908BD00F00703072B09D0002008BDD3
:103D8000C0B2FFF7D1FF054B1B6C53F8200008BDF4
:103D9000C0F3C200BDE80840FFF7A2BF484D0020B5
:103DA000028802F47F4C08B5BCF58E4F4FF000033B
:103DB0000B600ED002F47841B1F5404F28D0B1F538
:103DC000704F0DD002F47041B1F5504F1BD0184622
:103DD00008BDC2F3C300FFF783FF01230B6008BDDA
:103DE000438802F03F02C3F30A0303EBC2235209E4
:103DF00003D06FEAC3336FEAD333084A90690430C3
:103E000000EB430008BD054B986940FA82F008BDFD
:103E1000024B02F07F029869104408BD484D002013
:103E200038B50B4D09210B4C05F1580012F0C8FEB6
:103E3000204613F019F8FFF769FE05F1640004212C
:103E400012F0BEFE2046BDE8384013F00DB800BFAA
:103E5000D00300204426002030B583B005460C4630
:103E6000FFF77AFFF8B11C4B04461860A4F120025A
:103E70001A4B9A4215D81A4900230A4602E0013328
:103E8000202B0ED052F8040B0028F8D124F00104A6
:103E900014484DF61072258841F8234020F813503D
:103EA000228003B030BD01A92846FFF779FF18B181
:103EB0000D4A1060FFF7FEFD2B8803F47842B2F53F
:103EC000704F07D003F46843B3F5684F02D0024B3C
:103ED0001C60CBE70234FAE7944F0020E0FF272074
:103EE000B04E0020304F0020984F00202DE9F041C7
:103EF000564DDFF87C81AF6937F8023CBE1E03F5F2
:103F000003532F339BB2012B02D9D8F80030ABB149
:103F10002B6C68332B644E4B1B68002B00F0938096
:103F200098474C4C00252368C8F80050002B67D1F7
:103F3000494C2068002843D1BDE8F081474AA7F1E9
:103F40002201AE6112689661454A914213D8DFF8AA
:103F500024C126F00101624602E00133202B0AD081
:103F600052F8044B8C42F8D13E4A002032F813201C
:103F70004CF823000A803C4C2068002846D13B4C7A
:103F800020680028C4D0A0F12002354B9A4214D8F2
:103F9000DFF8E0C020F001000023624602E00133B8
:103FA000202B0AD052F8041B8142F8D12D4A00215F
:103FB00032F813204CF82310028000232360A7E777
:103FC000A0F12002264B9A4216D8DFF8A8C00023A1
:103FD000624602E00133202B0ED052F8041B002968
:103FE000F8D120F001001F4A01884CF8230022F884
:103FF00013104DF61072028000232360BDE8F0819B
:1040000039463046FFF728FF256091E7A0F12002EE
:10401000134B9A4214D8DFF85CC020F00100002353
:10402000624602E00133202B0AD052F8041B88427A
:10403000F8D10C4A002132F813204CF823100280EA
:10404000002323609BE7FFF7EBFE6AE7484D002063
:10405000BC4100203843002030430020AC4E0020FB
:10406000E0FF2720304F0020944F0020984F002081
:1040700020430020B04E002072B63848C0F800D06F
:104080003648016836480A6802604A6842608A68B1
:104090008260CA68C2600A6902614A6942618A69CB
:1040A0008261CA69C261046245628662C762C0F801
:1040B0003080C0F83490C0F838A0C0F83CB001643B
:1040C00062B600B54FF0E0234022214CC3F88822AD
:1040D0002368002B34D0022B04D112F0D9F912F04E
:1040E000D7F9FAE7FFF702FF1A4B0022196822609E
:1040F00000292CD01A605DF804CB72B6174801680D
:10410000174802680A6042684A6082688A60C2682A
:10411000CA6002690A6142694A6182698A61C26948
:10412000CA61046A456A866AC76AD0F83080D0F8E6
:104130003490D0F838A0D0F83CB062B6E64670476C
:10414000054B1A6822B15DF804EB1B689F4600BD61
:104150002C43002034430020B04C0020AC4E002003
:10416000484D0020074A4FF0E0210748136810B47B
:1041700001240460234440205DF8044B1360C1F81F
:1041800008027047284300202C4300201848C0F83C
:1041900000D01748016817480A6802604A68426000
:1041A0008A688260CA68C2600A6902614A694261BB
:1041B0008A698261CA69C261046245628662C762B5
:1041C000C0F83080C0F83490C0F838A0C0F83CB0D7
:1041D000016400B5044B01221A60044B02221A60EC
:1041E000FFF7C0FF00BD00BF1C430020204300209C
:1041F000AC4E0020484D00201848C0F800D01748A9
:10420000016817480A6802604A6842608A688260EA
:10421000CA68C2600A6902614A6942618A69826148
:10422000CA69C261046245628662C762C0F83080B2
:10423000C0F83490C0F838A0C0F83CB0016400B5B4
:10424000044B01221A60044B03221A60FFF78AFF15
:1042500000BD00BF1C43002020430020AC4E0020C6
:10426000484D00201848C0F800D01748016817488A
:104270000A6802604A6842608A688260CA68C260EE
:104280000A6902614A6942618A698261CA69C261D6
:10429000046245628662C762C0F83080C0F834901C
:1042A000C0F838A0C0F83CB0016400B5044B01224E
:1042B0001A60044B04221A60FFF754FF00BD00BFD0
:1042C0001C43002020430020AC4E0020484D00201D
:1042D0001848C0F800D01748016817480A680260FB
:1042E0004A6842608A688260CA68C2600A6902617C
:1042F0004A6942618A698261CA69C261046245622F
:104300008662C762C0F83080C0F83490C0F838A028
:10431000C0F83CB0016400B5044B01221A60044BA4
:1043200005221A60FFF71EFF00BD00BF1C430020DE
:1043300020430020AC4E0020484D00201848C0F813
:1043400000D01748016817480A6802604A6842604E
:104350008A688260CA68C2600A6902614A69426109
:104360008A698261CA69C261046245628662C76203
:10437000C0F83080C0F83490C0F838A0C0F83CB025
:10438000016400B5044B01221A60044B06221A6036
:10439000FFF7E8FE00BD00BF1C43002020430020C3
:1043A000AC4E0020484D00200F4B4DF6107219689E
:1043B0000B8823F00F039BB2934210D0A1F120028F
:1043C0000A4B9A420BD80A4B21F0010103F18000FD
:1043D00001E0984205D053F8042B8A42F9D101201C
:1043E00070470020704700BF444C0020E0FF2720AA
:1043F000B04E00200698A0F102001049086000B5F8
:10440000FFF7D2FF60B10A4A01240A484FF0E021C9
:1044100013680460402023441360C1F8080200BD03
:10442000054B1A681AB15DF804EB1B689F4600BD86
:10443000284300202C430020B44C0020444C002092
:1044400008B50378722B1FD06C2B0AD00378702B21
:1044500010D14278632A0DD182785AB92E4B9869CF
:1044600008BD4378722BF1D18378002BEED12A4B13
:10447000586908BD732B20D14378702B1DD18378E8
:10448000DBB9254B186C08BD83785BB14278312AC3
:1044900005D1312B3DD0322B38D0302B33D04FF0DB
:1044A000FF3008BD4378303B092BF8D8DFE803F034
:1044B0002825221F1C191613100D184915F0DEFAB5
:1044C0000028ECD1144BD86908BD134B586B08BDBC
:1044D000114B186B08BD104BD86A08BD0E4B986A7B
:1044E00008BD0D4B586A08BD0B4B186A08BD0A4B36
:1044F000D86808BD084B986808BD074B586808BDC8
:10450000054B186808BD044B986B08BD024B186931
:1045100008BD014BD86B08BD484D00203C0400206D
:10452000404B012210B51A600C460378722B17D04D
:104530006C2B0BD00378702B24D14278632A21D1C5
:104540008278FAB9384B01209C6110BD4378722BF8
:10455000F0D18378002BEDD1334B1046596110BD5B
:10456000837823B14178312919D0104610BD4378A2
:10457000303B092B19D8DFE803F02D4D4945413D6B
:1045800039353129732B02D14378702B0FD027494D
:1045900015F074FA48B9244B0120DC6110BD312BB1
:1045A0003CD0322B0ED0302B08D0002010BD8378A9
:1045B000002BECD11C4B01201C6410BD1A4B104683
:1045C0009C6310BD184B10461C6110BD164B01209A
:1045D000596310BD144B0120196010BD124B01200E
:1045E000196310BD104B0120D96210BD0E4B012084
:1045F000996210BD0C4B0120596210BD0A4B01207D
:10460000196210BD084B0120D96010BD064B012076
:10461000996010BD044B0120596010BD024B10463B
:10462000DC6310BD34430020484D00203C040020D2
:1046300038B54FF0E02211241C48C2F89C4D1C49AB
:10464000C2F8A00D01201B4B1B4A08601B4D1C49E2
:104650001C4C1D489D60DC601A6158611B4A9961C1
:10466000D96A914220D0DC6A19494FF0E02C1948F0
:10467000D9620460D3F85811174A18481160D02144
:10468000C3F858014023164A164882F84610802283
:104690000021CCF8083116F02BF9802200211248B5
:1046A000BDE8384016F024B90024DDE725000803F2
:1046B0002443002000280020F51C00001D1C0000E1
:1046C000CD1D0000891C0000611D0000593501004E
:1046D000851E0000B44C0020B04C0020091B0000D7
:1046E00000E400E0B04E00208C43002000B583B011
:1046F0000191FFF79DFF019801F012FC012003B02A
:104700005DF804FB134BA1F120029A421FD800234D
:1047100010B4114C224602E00133202B12D052F883
:10472000040B0028F8D121F001010C4AB1F800C0B7
:1047300044F8231022F813C04DF610725DF8044BB4
:104740000A8070474FF0FF305DF8044B70474FF020
:10475000FF307047E0FF2720B04E0020304F002090
:10476000124BA1F120029A421CD821F00101002332
:1047700010B40F4C224602E00133202B0DD052F82A
:10478000040B8842F8D10B4A002032F8132044F879
:1047900023005DF8044B0A8070474FF0FF305DF84E
:1047A000044B70474FF0FF30704700BFE0FF2720F9
:1047B000B04E0020304F0020014B1960704700BF01
:1047C000BC4100200846FFF73BBE00BF084611462B
:1047D000FFF7A6BE024B0021024AC3E90021704741
:1047E00014420020A40F002010DF00BF0368184708
:1047F0000B680360704700BF0B680360704700BF21
:10480000704700BF10B5044610F082FC204610BD72
:10481000002370B504680B60237863B91DE0092D8F
:1048200019D9052E19D80B68013442EA03120A601F
:10483000046023788BB1A3F1610CA3F1300EA3F1D6
:104840004106A3F13702BCF1050F5FFA8EF5E6D8F9
:10485000A3F15702E7E77246E5E770BD03688446B7
:1048600000B51A78A2F16101052940F2C580A2F1D4
:104870003001C9B2092940F2A780A2F141010529FE
:1048800000F2DB80373A1201D2B25978A1F161000F
:10489000052840F2A180A1F13000C0B2092806D954
:1048A000A1F14100052800F2CA803739C8B29978D1
:1048B00002440020A1F1610E62F30700BEF1050F72
:1048C00040F29E80A1F13002D2B2092A40F2B280B9
:1048D000A1F14102052A00F2B48037390901C9B2B9
:1048E000DA78A2F1610EBEF1050F40F29380A2F1D9
:1048F000300E5FFA8EFEBEF1090F08D9A2F1410E0B
:10490000BEF1050F00F29F80373A5FFA82FE1A79F6
:104910008E44A2F161016EF30F20052940F28280DE
:10492000A2F13001C9B2092906D9A2F14101052934
:1049300000F28C80A2F137010901C9B25A79A2F1C3
:10494000610EBEF1050F69D9A2F1300E5FFA8EFE3D
:10495000BEF1090F07D9A2F1410EBEF1050F77D8BC
:10496000373A5FFA82FE71449A7961F31740A2F1F7
:104970006101052933D9A2F13001C9B2092956D9FB
:10498000A2F14101052966D8373A1201D2B2D9798C
:10499000A1F1610EBEF1050F2AD9A1F1300E5FFA27
:1049A0008EFEBEF1090F07D9A1F1410EBEF1050F30
:1049B00053D837395FFA81FE7244083362F31F60BF
:1049C000CCF800305DF804FB0901CAB25978A1F1B6
:1049D000610005283FF65FAF5739C8B267E7D9795C
:1049E000573AA1F1610E1201BEF1050FD2B2D4D82F
:1049F00057395FFA81FEDFE7573A1201D2B244E736
:104A0000DA785739A2F1610E0901BEF1050FC9B27A
:104A10003FF66DAF573A5FFA82FE78E7573A5FFA92
:104A200082FEA0E7A2F157010901C9B286E7090198
:104A3000CAB2ACE71201D1B252E7F02225E7FF205B
:104A400035E7F0214CE74FF0FF0E60E7F02175E706
:104A50004FF0FF0E87E7F02299E74FF0FF0EABE72C
:104A600070B50C4D0C4E2C6804F57A7403E030BF21
:104A70002B689C420BD3306803681B699847002859
:104A8000F5DD306803685B699847C0B270BD4FF0D0
:104A9000FF3070BD744F00203C4300202DE9784763
:104AA000174B10B11860BDE878871A68002AFAD150
:104AB000144A40F2EE29144D144CDFF854802E684D
:104AC000DFF850A01A6004E0B3F5FA6FEBD811F0EC
:104AD000DFFC11F0DDFC23784BB198F80030DB07E8
:104AE00005D52B68DAF800209B1A0E2BDBD82B6833
:104AF00022789B1B002AE7D14B45E8D9D3E700BFBA
:104B00003C43002044260020744F00202850002001
:104B100027500020E44F0020002A38B505460C46F7
:104B20001BDB02B3AB1C611E5000114C03EB4202B5
:104B300011F801CF02334FEA1C1E0CF00F0C934208
:104B400014F80EE003F804EC14F80CC003F803CCDE
:104B5000EED128440023037038BD084615F03EFC12
:104B60000246002ADED128460023037038BD00BF6C
:104B7000142700202DE9F04104780546002C32D09E
:104B800001460023234411F8014FDBB2002CF9D178
:104B90001E1103F00F04DFF858802421D8F800001C
:104BA00003681B689847297841B1D8F8000003686A
:104BB0001B68984715F8011F0029F6D1D8F80000A6
:104BC00023210A4D03681B689847D8F80000A95DA7
:104BD00003681B689847D8F80000295D0368BDE8A2
:104BE000F0411B6818472646D5E700BF1427002070
:104BF0003C43002030B50E4D0C4683B001462B7867
:104C00005BB10190284615F0E9FB22460199284442
:104C1000FFF782FF204603B030BD4F2328462246CF
:104C200000F8013BFFF778FF204603B030BD00BF1E
:104C3000904D00202DE97841DFF83480D8F80060ED
:104C4000036873B104460D4606F57A761DB1D8F8AF
:104C500000309E4208D330BF11F01AFC2368002BAD
:104C6000F4D10020BDE878814FF0FF30BDE87881B5
:104C7000744F002080B500AF094B01221A60094B28
:104C80001B68094A52F823301846FFF773FF0021CA
:104C90000348FFF7CFFF034B00221A6000BF80BD1F
:104CA0008843002020430020442700202DE970473E
:104CB000CB4883B00D46CB49FFF784FD0646CA4971
:104CC000C748FFF77FFDC94B46F001029A4200F04A
:104CD000CD818046C649AC1CC148FFF773FDDFF8A3
:104CE0004C93019001AA05F10A0012F8013B02342D
:104CF000191103F00F03844219F8011004F8041C81
:104D000019F8033004F8033CEFD1BA49B448FFF76F
:104D100059FD01AA019005F1120012F8013B02347D
:104D2000191103F00F03844219F8011004F8041C50
:104D300019F8033004F8033CEFD1AF49A848FFF756
:104D400041FD01AA019005F11A0012F8013B02345D
:104D5000191103F00F03844219F8011004F8041C20
:104D600019F8033004F8033CEFD1A4499C48FFF73D
:104D700029FD01AA019005F1220012F8013B02343D
:104D8000191103F00F03844219F8011004F8041CF0
:104D900019F8033004F8033CEFD199499048FFF724
:104DA00011FD01AA019005F12A0012F8013B02341D
:104DB000191103F00F03844219F8011004F8041CC0
:104DC00019F8033004F8033CEFD18E498448FFF70B
:104DD000F9FC01AA019005F1320012F8013B0234FE
:104DE000191103F00F03844219F8011004F8041C90
:104DF00019F8033004F8033CEFD1834905F13A0A6E
:104E00007748FFF7DFFC01AA019012F8013B02345A
:104E1000191103F00F03A24519F8011004F8041C3E
:104E200019F8033004F8033CEFD1784905F1420446
:104E30006B48FFF7C7FC534601A9019011F8012BFD
:104E40000233101102F00F029C4219F8000003F81F
:104E5000040C19F8022003F8032CEFD16C496048C8
:104E6000FFF7B0FC224601A905F14A04019011F8B0
:104E7000013B0232181103F00F03944219F80000AD
:104E800002F8040C19F8033002F8033CEFD1614931
:104E90005348FFF797FC234601A905F152040190FE
:104EA00011F8012B0233101102F00F029C4219F885
:104EB000000003F8040C19F8022003F8032CEFD1CA
:104EC00055494748FFF77EFC224601A905F15A04DF
:104ED000019011F8013B0232181103F00F039442C4
:104EE00019F8000002F8040C19F8033002F8033C2A
:104EF000EFD14A493A48FFF765FC234601A905F17D
:104F00006204019011F8012B0233101102F00F021C
:104F10009C4219F8000003F8040C19F8022003F869
:104F2000032CEFD13E492E48FFF74CFC224601905E
:104F300005F16A0301A810F8011B02320C1101F0FF
:104F40000F01934219F8044002F8044C19F80110BB
:104F500002F8031CEFD101A905F17204CDF8048019
:104F600011F8012B0233101102F00F029C4219F8C4
:104F7000000003F8040C19F8022003F8032CEFD109
:104F800028491748FFF71EFC2246019005F17A03D5
:104F900001A810F8011B02320C1101F00F0193421D
:104FA00019F8044002F8044C19F8011002F8031C27
:104FB000EFD101A905F18204019611F8012B02330A
:104FC000101102F00F029C4219F8000003F8040CC3
:104FD00019F8022003F8032CEFD1134928E000BF91
:104FE00014420020980400209C0400207922000034
:104FF000A0040020A4040020A8040020AC04002089
:10500000B0040020B4040020B8040020BC04002038
:10501000C0040020C4040020C8040020CC040020E8
:10502000D0040020D4040020D8040020142700203D
:105030001148FFF7C7FB224601AB05F18A04019036
:1050400013F8011B0232081101F00F01944219F804
:10505000000002F8040C19F8011002F8031CEFD14B
:10506000002085F8880003B0BDE87087034B044E2C
:10507000D3F800802EE600BF1442002074430020C5
:105080000010006070B582B0431C524C0E46524D69
:1050900001A80193FFF7E2FB04F10801024628464C
:1050A000FFF794FB01A8FFF7D9FB04F10C010246BE
:1050B0002846FFF78BFB01A8FFF7D0FB04F1100196
:1050C00002462846FFF782FB01A8FFF7C7FB04F161
:1050D000140102462846FFF779FB01A8FFF7BEFB43
:1050E00004F1180102462846FFF770FB01A8FFF7FC
:1050F000B5FB04F11C0102462846FFF767FB01A837
:10510000FFF7ACFB04F1200102462846FFF75EFBE7
:1051100001A8FFF7A3FB04F1240102462846FFF78C
:1051200055FB01A8FFF79AFB04F128010246284627
:10513000FFF74CFB01A8FFF791FB04F12C0102469D
:105140002846FFF743FB01A8FFF788FB04F1300175
:1051500002462846FFF73AFB01A8FFF77FFB04F160
:10516000340102462846FFF731FB01A8FFF776FB22
:1051700004F1380102462846FFF728FB01A8FFF793
:105180006DFB211D02462846FFF720FB01A8FFF713
:1051900065FB04F13C0102462846FFF717FB01A816
:1051A000FFF75CFB214602462846FFF70FFB01A8EC
:1051B000FFF754FB04F1480102462846FFF706FBBF
:1051C000B4F8502094F8523000203280B37002B00E
:1051D00070BD00BF980400201442002030B5831C2D
:1051E00083B00D4601934278A2F16103052B21D9CA
:1051F000A2F13003D9B209291AD9A2F14103052B32
:1052000000F28A80A2F13704C31C01A80193FFF7C2
:1052100025FB631E02460E2B00F28480DFE803F0BC
:1052200068635E59544F4A45403B3631231B0D009D
:105230001C46E9E7A2F15704E6E73D493D48FFF780
:10524000C5FA3B4B0020B3F8502093F852302A8027
:10525000AB7003B030BD384B98424ED0374935481B
:10526000FFF7B4FAEDE7009034493248FFF7AAFAA5
:10527000334B009A83424CD032492E48FFF7A6FAAE
:10528000DFE731492B48FFF7A1FADAE72F49294830
:10529000FFF79CFAD5E72E492648FFF797FAD0E7A3
:1052A0002C492448FFF792FACBE72B492148FFF716
:1052B0008DFAC6E729491F48FFF788FAC1E7284950
:1052C0001C48FFF783FABCE726491A48FFF77EFA25
:1052D000B7E725491748FFF779FAB2E72349154898
:1052E000FFF774FAADE722491248FFF76FFAA8E713
:1052F00020491048FFF76AFAA3E7114A0F490D4801
:10530000FFF764FA0F490B48FFF75CFA1A4B186075
:1053100097E7194B1A60AFE7C31C01A80193FFF789
:105320009DFA8EE715490348FFF750FA89E700BF59
:10533000980400201442002001100060D4040020D2
:10534000792200009C040020D0040020CC0400201E
:10535000C8040020C4040020C0040020BC040020B5
:10536000B8040020B4040020B0040020AC040020E5
:10537000A8040020A404002074430020A0040020FE
:10538000184BA0F120029A4206D8213908449842CD
:105390008CBF00200120704700F12043B3F5F80FC7
:1053A00009D86FF0C0430B441844B0F5F80F8CBF18
:1053B0000020012070470C4B1B7883B10B4A9042B0
:1053C0000DD302EB0353984209D8013901448A42B4
:1053D0008CBF002001208B4238BF00207047002086
:1053E000704700BFE0FF272013500020000000702E
:1053F00070B5042684B0431C0D460DEB060002A9CF
:1054000001930396FFF704FA019B1A782C2A23D004
:10541000029C31462046FFF7B3FF60B3601E0023B5
:10542000184C05F1010C10F8012F110902F00F02C0
:10543000615C05F81310A25C0CF813200133B34231
:10544000F1DB002E4FEA4603D8BF02231D440023A0
:1054500000202B7004B070BD013303A90193FFF746
:10546000D7F9DDE9024620463146FFF789FF10B142
:10547000002EECDDD2E7044B586D2860002004B00C
:1054800070BD00BF1427002098040020034630B5EB
:1054900085B001330C4601A802A90193FFF7B8F9C2
:1054A000019B03A901330193FFF7B2F901A80DC8CD
:1054B000411C002B019138DDC2EBC27103EB020CE1
:1054C00000EB410000F1010E02300FE0A1F13005C8
:1054D000EDB2092D05D9A1F14105052D38D837398F
:1054E000CDB22B4402F8013B62451ED01EF81230AB
:1054F000A3F16101052922D9A3F13001C9B209291B
:1055000021D9A3F14101052920D8373B1B01DBB28A
:1055100010F81210A1F16105052DD7D85739CDB279
:105520002B4402F8013B6245E0D10A4B0020B3F85E
:10553000502093F852302280A37005B030BD573B05
:105540001B01DBB2E4E70901CBB2E1E7F023DFE7BF
:10555000FF25C6E798040020034610B584B0013348
:105560000C4601A802A90193FFF752F9019B03A978
:1055700001330193FFF74CF903990E4B994203D085
:105580000D48FFF7EDF848B90C4B0020B3F8502058
:1055900093F852302280A37004B010BD074B002155
:1055A0000020B3F8502093F85230E1702280A370AD
:1055B00004B010BD001000601442002098040020C8
:1055C000034610B584B001330C4601A802A901932B
:1055D000FFF71EF9019B03A901330193FFF718F9A7
:1055E00003990B4B994203D00A48FFF78BF848B94F
:1055F000094B0020B3F8502093F852302280A3705A
:1056000004B010BD044B586D2060002004B010BDE4
:1056100000100060144200209804002010B40468B8
:105620002378CBB1224641F2013C02E012F8013F5F
:1056300093B1203BDBB20C2B2CFA03F1F6D8CB074D
:10564000F4D51346002103F8011B5278202A03D118
:1056500013F8012F202AFBD0036020465DF8044B8D
:10566000704700BF2DE9704392B00346B74D0E4618
:1056700002A80293FFF7D2FF05F15C01044615F082
:105680003FF9A0B305F17401204615F039F900285F
:1056900000F0968005F18401204615F031F90028CC
:1056A00000F0A48005F19001204615F029F90028AA
:1056B00059D005F19C01204615F022F9002800F090
:1056C000028105F1B001204615F01AF98046002844
:1056D00000F0B68005F1EC01204615F011F9002824
:1056E00067D000233370002012B0BDE8708302A899
:1056F000FFF794FF804602A8FFF790FF98F800306C
:105700000446302B04D198F80130782B00F06781E3
:10571000404615F067F881462378302B03D1637833
:10572000782B00F05381204615F05CF880468849BC
:10573000204615F0E5F8012100285FFA89F908BF35
:10574000884648460FF078FB48465FFA88F10FF02C
:1057500037FB804B0020B5F850209B783280B37027
:1057600012B0BDE8708302A808ACFFF757FF0378BA
:10577000302B03D14378782B00F0FE8015F032F8FF
:10578000C0B2002101900FF057FB01980FF08CFB85
:1057900002467149204614F0B5FF204614F01EFE63
:1057A000214602463046FFF7B7F9002012B0BDE8A7
:1057B00070834FF0E023694AC3F80C2D307092E7F4
:1057C00002A808ACFFF72AFF0378302B03D14378F7
:1057D000782B00F00E8115F005F8C0B20021019081
:1057E0000FF02AFB01980FF015FBD1E702A8FFF795
:1057F00015FF044602A8FFF711FF23788046302BDF
:1058000003D16378782B00F00681204614F0EAFF7C
:10581000044698F80030302B04D198F80130782BEA
:1058200000F0EF80404614F0DDFF8046E0B2012139
:1058300001900FF001FB414601980FF0E1FF88E76E
:1058400002A8FFF7EBFE0378302B02D14378782BC8
:1058500074D014F0C7FF002800F0968040F00104D7
:1058600004AD029B02A81B78002B3CD0FFF7D6FEAC
:1058700002780346302A03D14278782A00F09E80CD
:1058800014F0B0FF08F1010845F8040BB8F1040F5B
:10589000E7D13348B21C4523324900F11D0501E030
:1058A00010F8013B1C0903F00F03854202F10202CC
:1058B0000C5D02F8044CCB5C02F8033CF0D10023F1
:1058C00086F83C300FE702A8FFF7A8FE05F1A40117
:1058D0000246254814F016FFB5F8502095F85230CE
:1058E0003280B370FFE608F1FF38B8F1020F00F222
:1058F0009A80DFE808F015021B001C4BDDE904016B
:105900001C60A0470246144908A814F0FBFE08A832
:1059100014F064FD08A902463046FFF7FDF8E2E600
:10592000134B04981C60A0470246ECE7114B049807
:105930001C60DDE90512A0470246E4E7831C08A9C4
:1059400004A80493FEF764FF089884E798040020F5
:1059500004050020E8040020180500200400FA05D2
:105960006505002014270020904D0020B441002040
:10597000B0410020B8410020831C214604A80493B4
:10598000FEF746FF0898FBE62948B21C4523294943
:1059900000F1110501E010F8013B1C0903F00F03B1
:1059A000854202F102020C5D02F8044CCB5C02F865
:1059B000033CF0D1002386F8243094E6023303A898
:1059C00008A90393FEF724FF08985BE7A31C08A926
:1059D00004A80493FEF71CFFDDF82080A7E608F179
:1059E000020308A904A80493FEF712FFDDF8209033
:1059F00092E6831C214604A80493FEF709FF089849
:105A0000EBE608F1020308A904A80493FEF700FFDF
:105A1000DDF820800AE7023408A904A80494FEF700
:105A2000F7FE089CF5E6044B1C60A04702466AE7B7
:105A30005105002014270020AC41002070B5424ED3
:105A4000C0B00C460A2206F1F401054614F074FDBC
:105A5000002863D0052206F58871284614F06CFDF5
:105A600070B1092206F58C71284614F065FD844654
:105A700000285ED000239C462370604640B070BD75
:105A80006846AB79A91D84462BBB3AE0A3F13002EE
:105A9000D2B2092A3FD9A3F14102052A52D8373B95
:105AA0001B01DAB24B78A3F16105052D1FD9A3F1D3
:105AB000300E5FFA8EFEBEF1090F06D9A3F1410543
:105AC000052D3CD8373B5FFA83FE724411F8023F44
:105AD0000CF8012BABB1A3F16102052AD6D8573BD4
:105AE0001B01DAB24B78A3F16105052DDFD8573BD6
:105AF0005FFA83FE11F8023F72440CF8012B002B71
:105B0000E9D1002321468CF80030FFF7ABFD844635
:105B1000604640B070BD1201D2B2C3E706F5807690
:105B200084460FCE206060466160A260E36040B0B2
:105B300070BDB6F824316046238040B070BD4FF090
:105B4000FF0EC2E7F022ADE79804002010B54278BE
:105B500082B00C46411C2D2A019116D001A815498E
:105B6000FEF756FE019B1A782C2A1CD0124B0022FD
:105B70001A60124B00201249B3F8502093F85230AB
:105B800008602280A37002B010BD0346094901A835
:105B900002330193FEF73CFE0B685B420B60019BF6
:105BA0001A782C2AE2D1013303490193FEF730FE23
:105BB000DFE700BF804300207843002098040020E6
:105BC0007C43002070B5037804460D4643B102467D
:105BD00002E012F8013F1BB13B2BFAD100231370F6
:105BE0000C4E204606F5947113F048FF48B106F5B7
:105BF0009871204613F042FF18B1002300202B704B
:105C000070BD054B0020B6F850209B782A80AB7001
:105C100070BD00BF98040020E804002038B50122C0
:105C2000534B1A600378213B592B2ED8DFE803F041
:105C30004D2D2D2D2D2D2D2D2D2D2D2D2D2D2D2D74
:105C40002D2D2D2D2D2D2D2D2D2D2D2D2D2D562D5B
:105C50002D2D2D602D6D452D2D2D2D2D492D2D41B9
:105C60002D322D2D2D2D2D2D2D712D2D2D2D2D2D1B
:105C70002D2D752D2D2D7D2D2D2D322D812D2D2D63
:105C80008532892D2D922D2D2D96002213460A70D6
:105C9000184638BD374A4FF0E02C374C0023B2F895
:105CA000500092F85220CCF80C4D088018468A70AB
:105CB00038BDBDE83840FFF791BABDE83840FFF77E
:105CC000E1B9BDE83840FFF7E1BB2A4A0023B2F84A
:105CD000500092F8522008808A70D9E7274A084677
:105CE000274B126853F8221013F0D2FE0023CFE79F
:105CF000204A0023234DB2F85000234C92F8522042
:105D00002B60236008808A70C2E7BDE83840FFF747
:105D10001DBFBDE83840FFF753BC0022194C1A489C
:105D20000123226002600A70B2E7BDE83840FEF746
:105D3000BDBFBDE83840FFF75BBBBDE83840FFF7AB
:105D40007DBE427872B901230F4C0E482360026079
:105D50000A709DE7BDE83840FFF734BFBDE8384022
:105D6000FFF7FABB034A0023506D086090E700BFBD
:105D700084430020980400200400FA0520430020FA
:105D800044270020884300203843002070B5484C49
:105D9000ADF5006D206803681B69984710B90DF5D3
:105DA000006D70BDFEF75CFE0028F8DB242812D0E1
:105DB0002D2805D00328F2D13E4B01221A60EEE7D0
:105DC0003D4B1A68002AEAD03C494FF0FF300022D0
:105DD00008601A60E3E70DF58066354609E0232880
:105DE00012D00DF5006203F8010B934234BF1D463B
:105DF0003546FEF735FE421C2B46F0D120682D219A
:105E000003681B689847CAE700232B70FEF728FE3B
:105E1000C0B2A0F16103052B45D9A0F13005EBB26A
:105E2000092B07D9A0F14103052B94BFA0F1370539
:105E30004FF0FF35FEF714FEC0B22D01A0F1610353
:105E4000052B2DD9A0F13003DAB2092A07D9A0F128
:105E50004103052B94BFA0F137034FF0FF33327895
:105E60001D441AB300233146134411F8012FDBB24D
:105E7000002AF9D19D42206804D003682D211B68B7
:105E800098478CE703682B211B6898476946304682
:105E9000FFF7C4FE012882D06846FEF76BFE7EE75E
:105EA000A0F15703DBE7A0F15705C3E71346E1E78D
:105EB0003C430020C04100207C4300208043002060
:105EC00038B5124B1B68B3B1114D01E0FFF75EFF0F
:105ED000286803681B69984704460028F6D10D4DD1
:105EE0002B784BB90C4B1A682AB100200B4A0121C0
:105EF0001860116012DF38BD2846FEF73BFE064BE6
:105F00002C701A68002AF6D0EFE700BFF4260020B4
:105F10003C430020904D0020C04100202043002041
:105F2000134B002200B51A708DB0FEF7B7FD114B70
:105F3000114A02A908A8009306930292FEF758FCA2
:105F400042F6DF6206A90D480FF060F8069B08A82C
:105F5000DB689847009B02A8DB6898470849094816
:105F6000FEF72AFC084B01221A600DB05DF804FB15
:105F7000904D002028110020513900000C270020EE
:105F80000527000014420020F4260020024A03499D
:105F9000034813F0F5BA00BF9426002095220000B4
:105FA0000C270020FF22027042707047362933D838
:105FB0000F2970B5044616461D460BDD122909D07F
:105FC000A1F113030A2B29D840F27960D84010F0D0
:105FD000010020D0C8B29FED160A20700FF076FCA9
:105FE00020782B11FF2532110021E370A27065701B
:105FF0000EF0E6FE207801210EF01EFF23780D4AF8
:106000000120590903F01F0352F8214000FA03F35D
:10601000234342F8213070BD00207047A1F12102D6
:10602000152A03D8044B1341DB07D3D5002070BDDC
:1060300000004842F83C0020E681DBFF0378362B65
:1060400000D97047B42940F61B5C10B5A8BFB42135
:106050008378C278044621EAE1714BF20B60D21AD0
:106060001B03617082B001FB02F200FB02F20C2004
:1060700003EBE2210CFB01F1890D01910FF016FDFC
:106080000199207802B0BDE810400FF0B9BB00BF05
:106090002DE9F843214B05461C68013C1C6014B1F6
:1060A0002846BDE8F883DFF880801D4F98F800305F
:1060B0003E68D3B906F1040806F17004203E04F1ED
:1060C0001C0010F019FE04F1100010F015FE201D48
:1060D000303C10F011FEB442F1D1404610F00CFEFD
:1060E000002328463B60BDE8F883306801F0EAFBF6
:1060F00088F80040B04681460A4948F8044B4046BB
:1061000010F036FEB9F1000FD6D0484600F02AFC58
:10611000044614F09FFB0460CEE700BF043C00205F
:10612000083C0020341F00200B50002070B50D4D9E
:106130002B7803B970BD0446006801F0C3FB00234F
:106140000646094944F8043B20462B7010F010FE27
:10615000002EEFD0304600F005FC044614F07AFB28
:10616000046070BD0B500020341F00200B4A38B56E
:106170001368591C11604BB1094C0A4A0A490B4873
:1061800013F0FEF90A4B22681A6038BD094D044C21
:10619000284614F00DFF2560EFE700BF043C002007
:1061A000083C002094260020213B0000243D0020D4
:1061B000043D00200C3C0020704700BF012801D99D
:1061C0000020704710B5044682B0084603F0C6FCB4
:1061D000034601A9E0B2019300F0CAF9012002B020
:1061E00010BD00BF024B00220249C3E900127047F4
:1061F000D03A00202411002000F000B8014B1868AC
:10620000704700BF744F002038B1044B421E012A72
:1062100098BF18460368DB6818477047442600207B
:1062200008B5EFF3058303B908BD13460A460146D6
:10623000074813F035FC074B91220749074813F034
:106240002FFC002014F056F810F0EEFC0FF030FD9B
:10625000281F0020381F0020641F00208C1F0020F2
:1062600008B500F009F800B108BDBDE8084014F019
:1062700093BE00BF00F06CB8064BD3F8800010F45A
:10628000405006D0A3F54033186880F40050C0F3A6
:106290004030704700C00F40284B1A682DE9F04F7E
:1062A000D20483B08246019107D54FF48051244A2D
:1062B0001960D96F1B6C00231360019E66B3DFF871
:1062C0008080DFF888901F4DD8F80070A5EB090595
:1062D0001A4C2FBB236813F4A05FFBD02368DB04A8
:1062E00022D4194B03F14001EA5843F8042F8B42A2
:1062F000FAD1236C49464027B742BB46504628BFD7
:10630000B3465A46A7EB0B0714F05AF8B6EB0B0648
:10631000DA44C8F80070DCD1019803B0BDE8F08F12
:10632000C7F140014944E7E7019A4FF48053921BBB
:1063300001920198236003B0BDE8F08F00C00C40CB
:106340002C4D002044C00C40FCFF1F2000002020EA
:10635000042100B583B00DEB0100FFF79DFF03287A
:1063600003D9019803B05DF804FB14F073FA0B2312
:106370000360019803B05DF804FB00BF034A136893
:10638000013B13600BB9024A13607047AC3C00201C
:10639000B03C00200A4A1368591C10B511604BB17B
:1063A000084C094A09490A4813F0EAF8094B2268DF
:1063B0001A6010BDFFF754FF024C074B2360F0E753
:1063C000AC3C0020B03C0020942600200D3E000094
:1063D000443D0020403D0020B43C0020074B70B5F8
:1063E0001C680546013C1C600CB1284670BD044E7B
:1063F000306814F0D9FD2846346070BDA83B0020F9
:10640000AC3B00201D4A00201D49136810B51D4CEF
:10641000C1E90040591C1160D3B11B4A1B491C48FB
:1064200013F0AEF81B4A1368591C1160F3B1164AF9
:1064300019491A4813F0A4F8194A1368591C116035
:106440006BB1114A17491848BDE8104013F098B8CD
:10645000164C204614F0ACFD154B1C60DDE7154CC6
:10646000204614F08DFD144B1C60EAE7134C2046C7
:1064700014F082FD124B1C60D9E700BF043C0020E1
:10648000D83A00202411002094260020213B00004F
:10649000283D0020AC3C00200D3E0000483D00207F
:1064A000A83B00206D3E00000C3D00200C3C00206D
:1064B000083C0020B03B0020AC3B0020B43C002056
:1064C000B03C00201A4A1368591C10B51160D3B1B2
:1064D000184A1949194813F053F8194A1368591CF6
:1064E0001160F3B1134A1749174813F049F8174AD6
:1064F0001368591C11606BB10E4A15491548BDE867
:10650000104013F03DB8144C204614F051FD134BCD
:106510001C60DDE7124C204614F032FD114B1C606C
:10652000EAE7114C204614F027FD104B1C60D9E718
:10653000043C002094260020213B00002C3D00203C
:10654000AC3C00200D3E00004C3D0020A83B00204C
:106550006D3E0000103D00200C3C0020083C002057
:10656000B03B0020AC3B0020B43C0020B03C0020FD
:10657000012800D9704721B1054B0A6843F8202053
:106580007047044A024B126843F82020704700BF4E
:1065900044430020BC19002030B54FF0000E00F03D
:1065A0000105714505DD25B110F8013B013963F3A3
:1065B0001F2E012927DD023900234C0804F1010CAC
:1065C00000EB4C0C30F8022B84451344FAD1C4EB99
:1065D000C47401EB4401012905D19CF8002062F349
:1065E000070E1FFA8EFE9E441FFA8EF303EB1E4326
:1065F00098B200EB134025B10302C0F307209BB211
:10660000184380B230BD84460023E4E708B5FFF7A5
:10661000C3FFC04380B208BD2DE9F0410E461546C8
:1066200004464FF46B713A4A3A48FFF7F9FD002EE1
:1066300041D0002C68D0DFF8E4C0DCF80070002FF7
:106640002ED0BC4239D0384601E0844235D0C068F3
:106650000028FAD1002D33D036683B4601E0DB68D4
:10666000C3B19C42FBD0617A490702D55A7A5207DE
:10667000F5D45A8AAA42F2D11A68B24218BF002A47
:1066800001D0002EEBD16FF00700BDE8F081366835
:10669000AEF800502660658238B10020BDE8F08178
:1066A000002D2FD03368658223600020E760CCF88E
:1066B0000040BDE8F081184EBBE70120002DCBD192
:1066C000DFF85CE04FF480414FF6FF78BEF80050F1
:1066D000454514D00135ADB2002FD8D03B4602E07D
:1066E000DB68002BD3D05A8AAA42F9D1013989B28A
:1066F0000029EDD16FF00700AEF80050CEE74FF45F
:106700004045E9E73846DBE76FF00F00C6E700BF1A
:1067100040120020C4230020BC190020CC4F0020D0
:10672000762700202DE9F04F85B00D46174640F240
:10673000CF21DDF838900446DDF83CA098464B4A5E
:106740004B48FFF76DFDB9F1000F18BFBAF1000F0C
:106750000CBF01210021002F08BF41F00101002DD5
:1067600008BF41F0010100296BD1002C69D0628A79
:10677000002A43D02A894FF6F7739A4264D8082139
:10678000284601F013FA00284CD12E467389072BB6
:106790005DD9628A98FA98F8736852BAA3F80280B1
:1067A0001A8000229A71DA71227C12071DD4328974
:1067B00052BA9A803B6803F0F003E02B30D0E37AC2
:1067C0001120CDF80890A27A5146019030460092EF
:1067D0003A4602F0A3FFAE42834602D0304601F0B3
:1067E0001DFA584605B0BDE8F08F3A6802F0F00295
:1067F000E02A0ED0328952BA9A80E0E7214620463C
:10680000FFF70AFF83460028B4D0584605B0BDE81C
:10681000F08F727B42F004027273328952BA9A800E
:10682000637FCDE74FF420720821242001F060FA45
:10683000064648B12B89002BA8D0294601F0A4FBBD
:10684000A4E76FF00F0BCCE74FF0FF3BC9E7084B15
:1068500040F20D320749084813F022F9002013F0E6
:1068600049FD0120FFF7D0FC0FF022FA5C12002056
:10687000C4230020382400208C1F002070B582B073
:10688000069C002C18BF002A0CBF4FF0010C4FF0E3
:10689000000C002908BF4CF0010CBCF1000F13D113
:1068A00090B1056835B92546CDE90045FFF73AFFB7
:1068B00002B070BD05F0F00CBCF1E00FF3D026681B
:1068C000B54204D10546EFE76FF00F00F0E76FF037
:1068D0000300EDE710B50446114A40F2A341114808
:1068E000FFF79EFCD4B1104B1A68A24206D03AB111
:1068F000D3682BB1A34209D01A46F8E7E2681A60C0
:1069000021460020BDE8104003F0B6B8E3682146F8
:106910000020D360BDE8104003F0AEB810BD00BF4A
:10692000D8110020C4230020CC4F002010B10268F1
:1069300001B102B970470B68002BFBD0084B1B68F4
:10694000002BF7D010B400E002681C68944201D11B
:106950000A681A60DB68002BF6D15DF8044B7047BB
:10696000CC4F002000F11003DBB2102B04D8034BF6
:10697000404253F82000704705207047F41700206C
:1069800008B500F091FF002380F8513008BD00BF2A
:1069900008B500F089FF002380F8703008BD00BF03
:1069A000F0B50446006883B00F4616461D46002821
:1069B00034D0A3880289B7F80001043013FA80F0BC
:1069C000904237DC3946204600F0D0FE08B103B0D3
:1069D000F0BD76BAA38802220DF106012068ADF859
:1069E000066001F069FB0028F1D1A3880222002D86
:1069F0000DF1060113440CBF4FF480704FF4C070CA
:106A00009BB2ADF80600A380206801F055FB00287A
:106A1000DDD1A3880233A38003B0F0BD4FF4207210
:106A200040F2AA51382001F063F9206010B10C2324
:106A3000A380BFE74FF0FF30C9E700BF2DE9F04367
:106A4000044685B000680D461646DDF834800F9F79
:106A5000002853D0A288B5F800C10CF10A0C1FFA27
:106A60008CFCB8F1000F03D00E998C441FFA8CFCFB
:106A700027B1B7F800118C441FFA8CFC94440289AA
:106A8000944549DC324629462046FFF789FF0C9B96
:106A900003A920681ABAA3880392042201F00CFB10
:106AA00048BBA68806F106091FFA89F9A4F80490E4
:106AB000B8F1000F0BD00E9B414620689DB24B46AB
:106AC0002A4601F0F9FAB0B9A3881D44A58027B180
:106AD0003946204600F04AFE68B9A188331D0222DB
:106AE0002068A1EB09019BB249BAADF80A100DF17B
:106AF0000A0101F0E1FA05B0BDE8F0834FF420721D
:106B000040F2AA513820019301F0F2F8019B206075
:106B100010B10C22A2809EE74FF0FF30EBE700BFE0
:106B200010B5C2B0044601A800F0DEFC0123FF222C
:106B300001A92046FFF734FF42B010BD10B5C2B026
:106B40000446012201A800F05DFD0123FF2201A9F6
:106B50002046FFF725FF42B010BD00BF30B5ADF5B0
:106B6000077D0D460446114604A8002200F04AFDA8
:106B700045A800F0F3FC2B7BDBB1E38873B10A225C
:106B80000023204604AC45A9CDE90023CDE9023419
:106B90000C22FFF753FF0DF5077D30BD0C2245A9F0
:106BA0002046FFF7FDFE0028F5D101230A22E380ED
:106BB000E6E741F29412E3E7F0B5C7B00D460446AC
:106BC0001046164600F070FE014605A800F08CFC49
:106BD0002B7BDBB1E38873B10A272046019604249E
:106BE000AB7A0025012205A90097CDE90245FFF700
:106BF00025FF47B0F0BD012205A92046FFF7D0FED2
:106C00000028F6D101230A27E380E6E77827E4E7A6
:106C1000F0B5ADF5097D17460D460122194604462B
:106C200006A81E4600F0EEFC394647A800F05CFCC2
:106C30002B7B33B30127E3888DF81E72BBB10A2387
:106C400047AA009306A903922122B6F88E01AB7AD7
